S013000052544F535F50726F6A6563742E73333763
S21400000000100020311100002D1100002D110000FD
S2140000102D1100002D1100002D1100002D110000E3
S2140000202D1100002D1100002D1100002D110000D3
S2140000302D1100002D110000BF6100002D110000E1
S2140000402D1100002D1100002D1100002D110000B3
S2140000502D1100002D1100002D1100002D110000A3
S2140000602D1100002D110000250800002D110000A4
S2140000702D1100002D1100002D1100002D11000083
S2140000802D1100002D110000950800002D11000014
S2140000902D1100002D1100002D1100002D11000063
S2140000A02D1100002D1100002D1100002D11000053
S2140000B02D1100002D110000A97300002D11000065
S2140000C02D1100002D1100002D1100002D11000033
S2140000D02D1100002D1100002D1100002D11000023
S2140000E02D1100002D1100002D1100002D11000013
S2140000F02D1100002D1100002D1100002D11000003
S2140001002D1100002D1100002D11000010B5054C1A
S214000110237833B9044B13B10448AFF300800123AE
S214000120237010BDA81C002000000000D8A000000E
S21400013008B5034B1BB103490348AFF3008008BD65
S21400014000000000AC1C0020D8A00000A3F5803AF8
S214000150704700BF174B002B08BF134B9D46FFF799
S214000160F5FF00218B460F461348144A121A08F072
S214000170B5F90E4B002B00D098470D4B002B00D046
S21400018098470020002104000D000D48002802D0EA
S2140001900C48AFF3008008F06FF92000290000F04B
S2140001A0EBFD08F055F900BF000008000000000055
S2140001B0000000000010002040110020D085002024
S2140001C00000000000000000034A136923F0040347
S2140001D0136130BFF9E700BF00ED00E02DE9F04104
S2140001E02D4E2E4F86B00025002202AB114610463B
S2140001F0CDE90053642305F0D3FD02ABCDE90053EF
S214000200002208230321264803F092FF02AB009346
S21400021000231A461946304604F09AFA02AB0093B9
S21400022000231A461946384604F092FA1D4A1E4B19
S2140002301468D3F804804A2C27DC1B68013326D0C8
S2140002402C2CD4BF0024012402AA0021304604F03E
S21400025021FC02AA0021384604F01CFC02ABC4B103
S21400026000220121114804F06DF9B8F1090F02AB24
S2140002700E484FF00002CCBF0421082104F062F9BA
S2140002809DF80830002BAFD0FEE70124DCE7002401
S214000290DAE722460221E5E7141D0020142C002090
S2140002A034310020E43B0020D43B0020C41C002056
S2140002B04FF6FF73C340DB0710B5044604D4064868
S2140002C040F2134101F0A2F9044B012000FA04F4B5
S2140002D0C3F8FC4010BD00BFB08E000000A0004672
S2140002E04FF6FF73C340DB0710B5044604D4064838
S2140002F04FF4797101F08AF9044B012000FA04F4F6
S214000300C3F8FC4010BD00BFB08E000000A0004443
S214000310F0B5144F87B002AD00264FF48473CDE9D4
S214000320006500220F21384603F002FF9DF80830D2
S214000330044603B1FEE7E00708D50420FFF7B8FF40
S214000340620709D50520FFF7B3FFE6E7A107F7D553
S2140003500420FFF7C5FFF3E72307DED50520FFF7E8
S214000360BFFFDAE7C41C00204FF6FF73C340DB076D
S21400037010B5044604D4054840F2B53101F046F9FC
S214000380034B23449B00186810BD00BFB08E0000CE
S214000390600885102DE9F74FDDE90CA48146581A50
S2140003A0AAEB020598460E46174608F04DF8834617
S2140003B0284608F049F804F00105002C04EBD47434
S2140003C0B8BF6D426310834505EB6405C3F10004B6
S2140003D016DCAC4216DA08EB04033119CDF800A09F
S2140003E03A46484606F091FA0134F2E70AEB04036F
S2140003F000933A1943463146484606F086FA0134D9
S214000400AC42F3DB03B0BDE8F08F73B53C250A269B
S2140004102946CDE900565A2341220446FFF7BAFF83
S2140004207823009301962B462A4629462046FFF756
S214000430B1FF02B070BD13B528230C22CDE90032FF
S2140004403C215A2341220446FFF7A4FF78230A21C1
S214000450CDE900313C231A4619462046FFF79AFF9D
S21400046002B010BD73B53C250A262946CDE90056D4
S2140004701E2341220446FFF78DFF78230093019642
S2140004802B462A4629462046FFF784FF02B070BD59
S21400049013B528230C22CDE900323C211E2341222D
S2140004A00446FFF777FF78230A21CDE900313C2385
S2140004B01A4619462046FFF76DFF02B010BD07B575
S2140004C078230A22CDE900323C2328221946FFF77A
S2140004D061FF03B05DF804FB2DE9F043344F354C63
S2140004E08FB04FF0000905AD002211461046CDE949
S2140004F00095642305F054FC00231A46194600951F
S214000500384604F025F92C4B1E68032E96BF2B4B5D
S214000510DFF8BC8053F826802A460021384604F0CF
S214000520B9FA00231A4619462548009504F010F932
S214000530244B254A1B68142109A808F0C7F82A4648
S21400054000211F4804F0A6FA204606F075F81F4959
S214000550204606F07BFB01250523CDE901350093F7
S21400056000231A464146204606F07DFB2046032E11
S2140005701BD8DFE806F002111417FFF773FF0523F8
S214000580CDE900330122002309A90295204606F092
S2140005906AFB06F007F8A6E7FFF77AFFEFE7FFF734
S2140005A04AFFECE7FFF731FFE9E7FFF788FFE6E7EA
S2140005B0141D0020A83B0020D43B0020849000009F
S2140005C0142C0020E43B0020308F0000989B000095
S2140005D0278F00007FB500F055FC18B11C48B921E4
S2140005E001F014F8002005F0B3FF18B11848BD213B
S2140005F001F00CF8174806F073F818B11448C1213A
S21400060001F004F8134C6FF07F4200232046C4E943
S214000610012306F011F81049204606F017FB0525C1
S214000620012600231A46CDE901560C4900952046BE
S21400063006F019FBCDE90156094900950023022270
S214000640204606F010FB04B0BDE8704005F0AABFD7
S2140006503E8F0000A83B0020989B0000478F0000BC
S214000660608F00008A6D002AF0B511DD0B6D01EB7E
S214000670C30551F833406E6801330A25013A93FBEF
S214000680F5F705FB17330B658A65C0E90046F0BD34
S2140006904FF0FF34F9E7836D012B14DD426D531ED6
S2140006A048BF02F109035A1E48BF03F1090200EBD6
S2140006B0C20200EBC30052684068012804D0531EF3
S2140006C05842584170470020704738B504461546D2
S2140006D0FFF7E1FF88B9A06D09280EDC636D04EB17
S2140006E0C30244F83310556001330A22013093FBED
S2140006F0F2F102FB11336365A06538BD80B5204E6C
S214000700204F88B004AB009300231A46194638469B
S21400071004F008FB1C48FFF7BEFF20BB1A4902A8DE
S214000720FFF7A0FFDDE9025404AB009300231A464E
S2140007301946304604F00CF8CDB924B1134B1A68AC
S2140007409968521A1A6004AA0021304604F0A2F9E9
S21400075004AB0F480022012103F0F4FE9DF8103090
S214000760002BCFD0FEE74FF0FF342546DCE7012D07
S214000770E9D1002CE7D0054BD3E900210A44E1E794
S214000780142C0020EC1C00204C3B0020E43B0020F6
S214000790343100201FB5164B164800225A60164BFF
S2140007A00521C3E90111154B4FF0FF3119601449BB
S2140007B06B4603F04BFE134913486B46002203F0CA
S2140007C045FE6B4611491248002204F03FFC1149D1
S2140007D011486A4604F0F4F8104911486A4604F0D5
S2140007E0EFF89DF8003003B1FEE705B05DF804FBB6
S2140007F03C3B002034310020E43B0020D43B00206A
S2140008007D8F0000958F0000C41C0020A78F00007D
S214000810EC1C0020B88F0000142C0020CD8F0000A8
S214000820141D00201FB5154BD3F81C24D3F828142C
S2140008300A40C3F824240620FFF796FD104BC0B9E3
S2140008401A6812B90F4A012111601C687CB90E4B58
S2140008500E485A681C60B2FA82F2520921465A6063
S214000860FFF733FF0A486A46214604F04FFB04B000
S21400087010BD0128E9D1034A0021E5E700A00040A9
S214000880483B0020443B00203C3B00204C3B0020E3
S214000890EC1C00201FB5154BD3F81C24D3F82814E5
S2140008A00A40C3F824240720FFF75EFD104BC0B9AA
S2140008B01A6812B90F4A012111601C687CB90E4BE8
S2140008C00E485A68B2FA82F20121520919605A603B
S2140008D0FFF7FBFE0A486A46214604F017FB04B001
S2140008E010BD0128E9D1034A0021E5E700A0004039
S2140008F0443B0020483B00203C3B00204C3B002073
S214000900EC1C002000B58FB00AAB08930122002330
S214000910CDE906320A214FF48072CDE9032119226F
S2140009200292064A0192152200920549054A064897
S214000930059304F09FFE0FB05DF804FB442C0020E6
S214000940E58F0000FD0600004430002000B58FB0A3
S2140009500AAB089301220023CDE906320A214FF4A0
S2140009608072CDE9032119220292064A01921522CD
S21400097000920549054A0648059304F07BFE0FB031
S2140009805DF804FB5C310020FA8F0000210B0000AC
S2140009905C35002000B58FB00AAB08930122002317
S2140009A0CDE906320A214FF48072CDE903211922DF
S2140009B00292064A0192152200920549054A064807
S2140009C0059304F057FE0FB05DF804FB4C3600208C
S2140009D012900000DD0100004C3A002000B58FB0F8
S2140009E00AAB089301220023CDE906320A214FF410
S2140009F08072CDE9032119220292064A019216223C
S214000A0000920549054A0648059304F033FE0FB0E8
S214000A105DF804FB24270020289000001103000046
S214000A20242B002000B58FB00AAB089301220023C8
S214000A30CDE906320A214FF48072CDE9032119224E
S214000A400292064A0192162200920549054A064875
S214000A50059304F00FFE0FB05DF804FB342200206F
S214000A6039900000D90400003426002000B58FB06D
S214000A700AAB089301220023CDE906320A214FF47F
S214000A808072CDE9032119220292064A01921722AA
S214000A9000920549054A0648059304F0EBFD0FB0A1
S214000AA05DF804FB441D00204A900000C9010000C8
S214000AB04421002008B500F015F900F0D3F8FFF740
S214000AC089FDFFF767FEFFF71DFFFFF73FFFFFF704
S214000AD061FFFFF783FFFFF7A5FFBDE80840FFF7BC
S214000AE0C5BF08B500F072F8002000F05BF880B9CA
S214000AF0012000F057F870B9022000F053F860B9F2
S214000B00032000F04FF800280CBF4FF0FF30032002
S214000B1008BD0020FCE70120FAE70220F8E7000005
S214000B20F0B51D4E1D4C87B00027002202AB1146C3
S214000B301046CDE90073642305F032F9FFF7D1FFC4
S214000B4002AB0093002305461A461946304603F0CA
S214000B50FFFD2368AB4219D0012DC4E900570ED81B
S214000B60A3680133A3600E4802AB0022022103F003
S214000B70E9FC02AA0021304603F08CFFD5E7023DCF
S214000B80012D9EBFE3680133E360ECE701331EBF2F
S214000B90636801336360ECE7141D0020D43B00203B
S214000BA034310020074A084952F8203052F82020F5
S214000BB051F82000A3EB920398422CBF002001209E
S214000BC0704700BFF03B0020003C0020F0B54FF01F
S214000BD080401E4C1E4F1F4E85B000F001FD0023C6
S214000BE023702378032B06D94FF0804005B0BDE86C
S214000BF0F04000F0DFBC2378174DF95C4FF08040E2
S214000C0000F0BEFC0021012369626A4631700A20AA
S214000C106B6004F0CDFF02236B606A6A23780F498D
S214000C20DBB241F8232023780D49DBB251F823309C
S214000C309A4282BF2378DBB241F823200123337027
S214000C4023780133DBB22370CBE700BF103C0020D3
S214000C50AC900000113C002000840140003C0020C5
S214000C60F03B002030B5164D0FCD87B06C460FC454
S214000C7095E8030084E803001248012100F066FDB1
S214000C801148012100F062FD1048012100F05EFDD0
S214000C9001214FF48A4000F059FD0D4B0D4A1A60B1
S214000CA04FF6FF72DA610C4A1A670C4B0C4A1A654B
S214000CB069464FF0804000F01BFC07B030BD00BF17
S214000CC094900000404105000012040000A20400B9
S214000CD0008401400000010A0100002A00600E4066
S214000CE00003100013B54FF00111052001F0FAFEC5
S214000CF0042211460023052001F0B6FF4FF0011133
S214000D00052001F0EFFE052100230422084601F02D
S214000D10ABFF4FF00111052001F0E4FE0023012295
S214000D200621052001F0A0FF4FF00111052001F07B
S214000D30D9FE002301220721052001F095FF01249A
S214000D40062223461146CDE90044052001F0EEFEBA
S214000D50072223461146CDE90044052001F0E6FEB1
S214000D60044B4FF480221A604FF480621A6002B07F
S214000D7010BD00BF00E100E008B506F039FBFFF744
S214000D8099FE06F042FB002008BD704708B5042116
S214000D90112001F0BBF80948012100F0D7FC0848F3
S214000DA0022101F0B3F80748022101F0AFF8064827
S214000DB0022101F0ABF8002008BD00BF30253E0040
S214000DC002001E00030020000500240008B5224B88
S214000DD001225A64214BD3F8FC20214B120E12D16B
S214000DE04AF6E851C3F89011D3F8981141F004017F
S214000DF0C3F89811C3F89021D3F8642142F4005246
S214000E00C3F8642101E0012AF6D0164A136A23F4D7
S214000E10441343F488131362A2F58052D2F8A43127
S214000E2043F4F843C2F8A43105F0B0FF00F040F8F0
S214000E3005F04AFF05F06CFF05F094FFFFF7A6FFEC
S214000E4005F058FF00F028F807F098F802F040F98F
S214000E50BDE8084002F04EB900000E400081E00FE9
S214000E6000300E4000400E4002F068B900F004B8B2
S214000E7006F05EB870477047014800F0EFB900BF53
S214000E80B090000008B5042201230F21032001F0D2
S214000E90EBFE002008BD000008B50448012100F064
S214000EA055FCBDE80840FFF770BF00BF00350A00DC
S214000EB00148012100F04ABC00350A002DE9F04146
S214000EC01A4E0446884617460FCE86B06D460FC5A6
S214000ED096E8030085E8030015482568012100F020
S214000EE035FC6068012100F031FC617B207B00232B
S214000EF0042201F0B9FE617A207A0023042201F070
S214000F00B3FE28466946CDF80880ADF8107001F0AB
S214000F10EDFF237CA27B1B0643EA0223AB6700207F
S214000F200A236B6706B0BDE8F08100BFC8900000DA
S214000F3000350A0070B506680C468D18AC4201D123
S214000F40002070BD14F8011B304602F029F8F5E7C2
S214000F50026813699B06FCD57047000013B504466B
S214000F6006F0E6F8247B00230122CDE90032640077
S214000F70034AB0FBF4F1034806F03CF802B010BD9B
S214000F80890F0000143C0020024B4FF40052C3F8B7
S214000F90A820704700A0004073B50F4B0F4E4FF4CB
S214000FA08045C3F89C500446407B06F031FA042383
S214000FB002220DF106013046ADF80630FFF7BAFF03
S214000FC03046FFF7C5FFA07B06F022FA044B002050
S214000FD0C3F89C5002B070BD00A00046041000206C
S214000FE000A0004438B5044601211248124D00F016
S214000FF0ADFBA16811480022FFF760FF0023042222
S2140010000E21032001F030FE002304220D210320D0
S21400101001F02AFE94E80F0085E80F00084B012235
S21400102020461A70FFF79AFF2046FFF7B5FF00200C
S21400103038BD00BF00350A00343C002004100020F4
S214001040303C00202DE9F74F0688DFF8A4B098461C
S21400105003795E43254B14464FF48042C3F89C2028
S2140010600134A4B20546407B0F4606F0D1F92302B0
S21400107043F001031E48ADF8063002220DF10601CA
S2140010800134FFF757FF2402F610A4B24FF0000910
S21400109008F1FF3AC1450ED11548FFF759FFA87B66
S2140010A006F0B6F9134B4FF480420020C3F89C209C
S2140010B003B0BDE8F08F394632465846FFF73AFF90
S2140010C0CA4514BF44F0FF034FF6FF7302220DF12A
S2140010D00601584604F58074ADF806303744FFF72D
S2140010E029FF09F10109A4B2D4E700BF00A0004619
S2140010F00410002000A00044034B04481B78002B7B
S21400110008BF0020704700BF303C0020343C002061
S2140011101FB5054B0FCB6C4684E80F002046FFF743
S21400112061FF04B010BD00BFE0900000FEE70000C5
S21400113008B500F069F8064B0649074A8B4201D30A
S214001140FFF708F852F8040B43F8040BF6E700BF65
S2140011500010002040110020E0A00000004870476A
S214001160005A6202104AD2F8943003F00703023B9A
S214001170032B13D8DFE803F00C14020E0B4B1B688E
S214001180D2F80001C0F304200130B3FBF0F0704742
S214001190074BF4E7074B1B685B08F1E7054BEEE7E8
S2140011A04FF40043ECE700BF00400E402410002040
S2140011B01C1000202010002008B5FFF7D3FF054BB9
S2140011C0D3F80831C3F308230133B0FBF3F0024B26
S2140011D0186008BD00400E4018100020014B18682B
S2140011E0704700BF1C100020054B1860054BD3F855
S2140011F0943003F00703022B01D1FFF7DDBF7047E1
S2140012001C10002000400E40044B054A9A60D3F89C
S214001210882042F47002C3F88820704700ED00E092
S214001220000000004FF4004070474FF47A7070479B
S214001230014B1868704700BF2410002005490A6853
S2140012401318054883428CBF4FF0FF320B601046E0
S214001250704700BF2810002000000420D0E90003DB
S2140012601847000038B50D46044618B3012824D0A8
S214001270022825D0032826D004280ED0052825D0FD
S214001280831F012B09D9082823D0092823D00A2830
S21400129003D10723EB40DB0704D410484FF47971E1
S2140012A000F0B4F930200E4B0121444301FA05F555
S2140012B01D5138BD40F2FF33ECE74FF6C073E9E747
S2140012C040F6FF73E6E74FF47F43E3E74FF6FF731E
S2140012D0E0E70F23DEE74FF44043DBE7B08E000085
S2140012E00CA0004438B50D46044618B3012824D097
S2140012F0022825D0032826D004280ED0052825D07D
S214001300831F012B09D9082823D0092823D00A28AF
S21400131003D10723EB40DB0704D4104840F2134107
S21400132000F074F930200E4B0121444301FA05F514
S2140013301D5138BD40F2FF33ECE74FF6C073E9E7C6
S21400134040F6FF73E6E74FF47F43E3E74FF6FF739D
S214001350E0E70F23DEE74FF44043DBE7B08E000004
S2140013600CA0004610B501210446094800F0EEF92D
S2140013700848012100F0EAF9A37820786178B3FAEA
S21400138083F35B09042201F06FFC002010BD00BF50
S2140013904041050000350A000346007859789B78DE
S2140013A00BB9FFF75FBFFFF79DBF0346007859787C
S2140013B09B780BB9FFF796BFFFF754BF38B5047894
S2140013C045782CB3012C26D0022C27D0032C28D00D
S2140013D0042C0ED0052C27D0A31F012B09D9082CCE
S2140013E025D0092C25D00A2C03D10723EB40DB0798
S2140013F004D4114840F22E4100F008F9302254433C
S21400140004F18044012304F52044AB40A36138BDB9
S21400141040F2FF33EAE74FF6C073E7E740F6FF73A4
S214001420E4E74FF47F43E1E74FF6FF73DEE70F2371
S214001430DCE74FF44043D9E7B08E000070B504787F
S2140014404578064654B3012C2BD0022C2CD0032C06
S2140014502DD0042C0ED0052C2CD0A31F012B09D97F
S214001460082C2AD0092C2AD00A2C03D10723EB40BB
S214001470DB0704D4134840F2FE3100F0C7F83023EF
S2140014805C43114B234405EBC305AD00B3782868D5
S214001490C0B213B9B0FA80F0400970BD40F2FF3315
S2140014A0E5E74FF6C073E2E740F6FF73DFE74FF479
S2140014B07F43DCE74FF6FF73D9E70F23D7E74FF4F8
S2140014C04043D4E7B08E00000CA0100270B505466D
S2140014D00E46144600F0ACFE296881EA040202EAD1
S2140014E006044C402C60BDE8704000F0A5BE00002D
S2140014F0B0F1804F38B504460D4606D01D4B9842D5
S21400150003D01D48A22100F081F82B693F2B03D998
S2140015101948B62100F07AF8EB683F2B03D9164835
S214001520B72100F073F86B683F2B03D91248B82137
S21400153000F06CF86B682A781B0643EAC27343F423
S21400154000432360EA682B7A43EA0243A3622A69CF
S2140015506B7A43EA0243E362AA7A084B43EA0273D1
S214001560636004F1424404F5801464012B7D23601B
S21400157038BD00BF00040040F090000000FD0004ED
S214001580B0F1804F13B50A46044608D0074B984280
S21400159005D001910648F52100F038F8019AFF21A0
S2140015A0201D02B0BDE81040FFF790BF00040040C9
S2140015B0F0900000B0F1804F10B5044607D0064BFF
S2140015C0984204D0054840F21B1100F01FF823682B
S2140015D023F00103236010BD00040040F0900000DB
S2140015E0B0F1804F10B5044607D0064B984204D0A1
S2140015F005484FF49C7100F009F8236843F0010396
S214001600236010BD00040040F0900000FEE70000DC
S2140016100C4B984210D90C4B984210D90222012349
S2140016200A490B640A49D1F8003123F0807343EA73
S2140016300263C1F80031704700221346F0E701222A
S214001640FBE700BF0048E8010090D0030000C84355
S21400165000400E4038B5114B5B68114B00221C460B
S214001660C9B21D798D4202D11D68854212D201325F
S214001670052A03F10803F4D10A4841F23A41FFF77C
S214001680C5FF032205494B6823F0407343EA026313
S2140016904B6038BD04EBC2025279F3E700000E40FF
S2140016A080920000669100001F2810B5044604D9F9
S2140016B0034840F22F11FFF7A9FF0120A04010BDFC
S2140016C0DB91000038B5074C41F67133256C236476
S2140016D0FFF744FD0021FFF7BDFF0DB10023236493
S2140016E038BD00BF00000E40044BDB6B5B0604D425
S2140016F0034AD2F8C830002BFBD1704700300E40AA
S2140017000000C64308B5FFF7EFFF024B5868C0F36A
S214001710014008BD00300E40044BD3F84421D207E8
S21400172003D4D3F840211042FBD1704700400E404E
S21400173038B5054C41F67133256C2364FFF78AFFF4
S2140017400DB10023236438BD00000E4038B5C0F349
S2140017500323013B092B24D8DFE803F02A2D23239B
S214001760051619231C20154C0023C0F3043513B1AD
S2140017701846FFF7D1FF04F1424404F5801405EB48
S214001780C404A400216038BD0D4C0123EDE70D4CC8
S2140017901023EAE70C4C4FF48033E6E70B4C0023AB
S2140017A0E3E7BDE838400A4841F6D711FFF72EBFF9
S2140017B0084C0023D9E7084C0023D6E7B0400E407B
S2140017C0E0400E40E8400E40F0400E4050410E40D3
S2140017D06691000000400E40C0400E4008B5C0F3C1
S2140017E00313013B092B60D8DFE803F0050B0F1944
S2140017F05F5F1F233C532E4BD3F80001C0F3042039
S21400180008BD2B4BD3F81401F8E7294BD3F8000199
S214001810C0F300600130FFF747FF0138F0E7244BC4
S214001820D3F80C01C0F30820EAE7214BD3F80801EF
S214001830F8E7204B984209D01F4B98420CD041F64F
S2140018407B311E48FFF7E2FE0020D9E7184BD3F89D
S214001850200100F00F00DEE7154BD3F82001C0F39F
S2140018600110D8E7164B984208D003F5B01303F5DD
S2140018708053984206D041F69F31E2E70C4BD3F8EE
S2140018802801ECE70A4BD3F82801C0F30120043006
S214001890C1E70C4B984205D1054BD3F8300100F058
S2140018A00300ADE741F6AE31CBE741F6D331C8E7EA
S2140018B000400E408006160080162E00669100003E
S2140018C090171A00A009140008B5FFF787FF01302B
S2140018D008BD000000F00F00013808B5072844D8FE
S2140018E0DFE800F0040F1943232D4335264BD3F8C9
S2140018F0943003F00703023B052B3DD8234AD05C07
S21400190008BD214BD3F8803003F00703013B032BBF
S21400191034D81F4AF3E71C4BD3F8843003F0070390
S214001920013B032B2AD81B4AE9E7174BD3F888302C
S21400193003F00703013B032B20D8174ADFE7124BBF
S2140019401B6F13F0010F0CBF07200920D8E70E4BC2
S214001950D3F85C3103F03003202B11D0302B11D09C
S214001960102B14BF01200720CAE70C4841F6277148
S214001970FFF74CFE0020C3E70520C1E70120BFE7C4
S2140019800420BDE70820BBE700400E40549200004C
S2140019905A9200005E9200005A9200006691000083
S2140019A038B52C4B984205460AD02B4B984207D0A8
S2140019B02A4B984204D02A4841F23A51FFF726FEB5
S2140019C02846FFF787FF234B9D42044611D0224B43
S2140019D09D4212D0214B9D4213D1224BD3F880401A
S2140019E004F00704042C2DD8DFE804F02A11151D96
S2140019F019001C4BD3F88440F2E71A4BD3F8884002
S214001A00EEE7174841F26951FFF700FEEAE7BDE846
S214001A103840FFF707BCBDE83840FFF709BCBDE813
S214001A203840FFF702BCFFF79DFB0E4B0446D3F889
S214001A300001C0F300600130FFF736FEB4FBF0F49F
S214001A40204638BD064841F2BB51FFF7DFFD0024B3
S214001A50F6E700BF030020000500240002001E0079
S214001A606691000000400E4038B500F47813B3F5D8
S214001A70B01F05467FD02ED8B3F5402F69D011D8B9
S214001A80B3F5802F54D006D843B1B3F5003F5AD0F3
S214001A9041F607311AE0B3F5202FF9D1BDE83840FA
S214001AA0FFF760BBB3F5801F00F0A280B3F5A01F60
S214001AB057D0B3F5602FEBD15B48FFF70BFF072835
S214001AC000F096800928E9D041F2FC215748FFF73C
S214001AD09DFD002036E0B3F5381F5AD013D8B3F575
S214001AE0001F5FD00AD8B3F5D01F5DD0B3F5F01F46
S214001AF0CED14F48BDE83840FFF752BFB3F5101FB0
S214001B00C6D14C48F6E7B3F5481F57D0B3F5781F53
S214001B1000F08280B3F5401FBAD14748FFF740FF78
S214001B20464B0446D3F82801C0F3012004302BE0CE
S214001B30FFF718FB414BD3F80C31C3F308230133EE
S214001B40B0FBF3F038BDFFF70DFB3C4BD3F8083184
S214001B50F3E7FFF707FB394BD3F81431C3F304233D
S214001B60EDE73448FFF71CFF344BD3F8303103F071
S214001B700303D840E6E72E48FFF712FF2F4B044634
S214001B80D3F8200100F00F00FFF78EFDB4FBF0F055
S214001B90D8E72748FFF704FF284BD3F82031C3F3D4
S214001BA00113E6E72448A5E72348FFF7F9FE234B91
S214001BB00446D3F82801C0F30110E5E72048FFF7F4
S214001BC089FE0138072824D801A353F820F000BF67
S214001BD0D31A0000131C0000131C0000F71B0000A3
S214001BE0131C0000131C0000F11B0000FF1B00006C
S214001BF0144B1868A6E7BDE83840FFF7EFBAFFF7C2
S214001C00B1FA0E4BD3F80031C3F3042303FB0000F4
S214001C1098E741F2333159E7FFF7A4FA044628461D
S214001C20FFF752FEB2E700BF06000E006691000006
S214001C3002001E00050024000300200000400E40A5
S214001C40B80032002C100020014B1880704700BFEF
S214001C5030100020013838B50C46032864D8DFE879
S214001C6000F002441A2FB1F5007F04D3324842F246
S214001C702571FFF7CBFC314AC4F30804D2F8683864
S214001C80002BFBD12E4A136A23F4FF7323F00103C3
S214001C902343136238BD7F2904D9274842F23271A4
S214001CA0FFF7B4FC254A04F07F01D2F86038002B19
S214001CB0FBD1234B1C6924F07F040C431C61E9E72D
S214001CC07F2904D91C4842F24D71FFF79FFC1B4A3E
S214001CD004F07F01D2F86438002BFBD1184B9C69C6
S214001CE024F07F040C439C61D4E7154DD5F8903062
S214001CF05B0704D5104842F25D71FFF787FC6B6AFC
S214001D0023F0300343F010036B62C4F3C311CB1C03
S214001D102A6B0C490F2B01EA020128BF0F2321432F
S214001D2041EA03712963B5E7BDE83840024842F24C
S214001D307771FFF76BBC00BF669100000020C843B8
S214001D4000400E4000F8FF0F022810B50C4604D0E5
S214001D50144842F28F71FFF759FC134B5B6A13F07D
S214001D60300F1BD0202C16D0302C17D0B4B10D4815
S214001D7042F2AA71FFF74AFC0C4B0B4AD2F89010BD
S214001D8033EA0101FAD15B024ABFD2F8A000012073
S214001D90C0F3802010BD4FF40003EEE74FF440037D
S214001DA0EBE700BF6691000000400E40FF33E107FE
S214001DB0022808B50CD129B1094B4FF48060C3F84E
S214001DC0A80059664AB1BDE808400220FFF7BCBF2C
S214001DD0044842F2E071FFF719FC012008BD00BF7D
S214001DE000400E406691000004282DE9F0470446A6
S214001DF00F4691461FD83D4B3D4A13F800A03D4B79
S214001E0013F80080F1B93C4B33F810301366012309
S214001E1003FA08F8D2F8903013EA080FFAD1B9F1AD
S214001E20000F5AD00125324A05FA0AF5D2F890304A
S214001E302B42FBD151E0BDE8F047304842F27461D6
S214001E40FFF7E4BB2E4B022833F8106047D1536AE5
S214001E5013F0300F43D12B4BDB6B5A0504D42748C5
S214001E6042F28361FFF7D2FB214A536ADB0705D5AE
S214001E70536A23F0300343F010035362224D1C4B89
S214001E80A8441E664FEA8808D8F80030002BFBD01E
S214001E90B9F1000F21D05544AD002B68002BFCD0C3
S214001EA0022C1AD1CFB1124F796A11F0010118D065
S214001EB0012220212046FFF77BFFD7F89C40012215
S214001EC000210220FFF790FFC4F30A010220FFF76B
S214001ED0C1FE3E662B68002BFCD0BDE8F0870027CD
S214001EE0CCE72046FFF730FFE7E700BF629200002E
S214001EF000400E4067920000769200006691000057
S214001F006C92000000300E408004F210112838B5A4
S214001F100C460FD000F00F000138072800F2EB80C7
S214001F20DFE810F0240066009A00E9007D00B400A7
S214001F30E900C200042912D1FFF750F90546A8B1FE
S214001F400021284600F082FA023C0A2C45D8DFE839
S214001F5004F04A473137444444443D0F4D000529B8
S214001F6004D1664B1D68664B9D42E9D80025EBE719
S214001F700320052401221146FFF736FFFFF7A2FBD8
S214001F800DB1FFF7B1FB5F4B5C67FFF715F9044631
S214001F90FFF7E8F8FFF73CFBFFF7B4FB01462046E7
S214001FA0FFF7C6FB002D5DD128460121BDE838406D
S214001FB000F04CBA5448FFF72BFB02200446D9E742
S214001FC05148FFF725FB01240320D3E741F6E871CB
S214001FD0BDE838404D48FFF719BB41F6ED71F7E70D
S214001FE001200324C6E700200424C3E70724C5E72E
S214001FF0062933D14548464D42F22C01FFF706FB31
S214002000424842F23C01FFF701FBFFF7ABF8FFF74F
S214002010FFFA404B0122C3F80826032321E00629D5
S2140020203D4DEDD0013C092C2BD801A353F824F0EC
S2140020308920000067200000752000008320000033
S214002040832000000B200000832000008320000077
S2140020508320000061200000304DE3E72C4DE1E7CF
S21400206004232B6038BD012211460020FFF7BCFE7A
S2140020700223F6E7012211461046FFF7B5FE0123BC
S214002080EFE742F26701A3E70023EAE7072904D057
S214002090092906D042F2F1019AE71A4B00221A6784
S2140020A0E0E7184B0122FAE74C1E072C1ED8DFE8A3
S2140020B004F0201D1D161D1D0F0403221149D1F822
S2140020C05C3123F0300343EA0213C1F85C31C9E700
S2140020D0012211460420FFF787FE0122EEE70122C7
S2140020E011460220FFF780FE0222E7E742F24F1178
S2140020F06EE70022E2E742F2262169E72010002080
S214002100002D310100400E400148E80166910000B4
S21400211080400E400010C84388400E4084400E4069
S21400212010B504461120FFF7D5FB042804D1274834
S21400213042F20F51FFF76AFA012200210220FFF750
S21400214053FE63781BB9A3780BB9E37823B11F4815
S21400215042F24B51FFF75AFA237C012B04D11B485D
S21400216042F25251FFF752FA194A217C536A23F081
S2140021700103022908BF43F001035362154B21787F
S214002180C3F8A014637AA18843EAC123D362136B11
S214002190A07A217A03F07F630343E08843EAC023F2
S2140021A043EAC11303310F2928BF0F2143EA017305
S2140021B01363A37B617B1B0143EA0133E17B0B4383
S2140021C0217B43EA0143536310BD00BF66910000C4
S2140021D000400E400000C84370B505461120FFF7CA
S2140021E079FB022804D10F4842F2CD51FFF70EFAD0
S2140021F00D4E0E4BB26B2C7813401C436B7844EAA2
S214002200C324AB7844EA0364EB7844EA0324B36B54
S214002210A34205D0002101220846FFF7E5FDB4637E
S21400222070BD00BF6691000000400E4080E4FFF8DD
S214002230EFF3108072B6704700B962B67047EFF3DE
S2140022401180602383F31188704780F311887047EC
S214002250034B5868C0F30800003818BF01207047C9
S21400226000ED00E0EFF31083DB0706D4EFF31180F8
S2140022705F2894BF002001207047012070470000AF
S214002280034BD86B80F04000C0F38010704700BF4F
S21400229000300E4038B542EA0323B3F5007F05460A
S2140022A00C463ED019D8B3F5807F36D00AD883B313
S2140022B0012B21D01F4840F68E11FFF7A7F9002208
S2140022C013461FE040F201129342F3D11A4BD3F8A3
S2140022D024321A0EC3F3074314E0B3F5407F24D02C
S2140022E040F20132934210D040F201229342E1D1F3
S2140022F0114BD3F8283202E00F4BD3F82432C3F345
S2140023000722DBB22B60226038BD0B4BD3F8283295
S214002310DFE7094BD3F81C32F1E7074BD3F81C3242
S214002320D7E7054BD3F82032E9E7034BD3F8203242
S214002330CFE700BFA89200000081E00F08B5FFF7C6
S2140023409FFF20B1024AD2F8C830002BFBD108BD4F
S2140023500000C6431A4B022810B5D3F830320C469C
S21400236012D0032813D0012814BFDBB2C3F307230F
S2140023701B0323F47042ECB95AB140F61D11114804
S214002380FFF744F9002010BDC3F30743F0E71B0E28
S214002390EEE70D49CA6E22F470421343CB66012065
S2140023A0F1E70949D1F8EC2022F470421343C1F852
S2140023B0EC30F4E7002AF4D040F62911DFE700BF3E
S2140023C00081E00FA892000000300E40F8B50446E9
S2140023D00F46FFF755FF78B3FFF7B0FF174B5B6864
S2140023E0C3F301439C4227D0154BD3F80061FEF798
S2140023F0B9FE022C05460FD1124BC6F3042606FB87
S21400240000069E4204D9104840F23161FFF7FEF8FC
S21400241002212846FFF78CF9C4F1020210239340EC
S214002420064A13610FB1FFF789FF2CB921462846EB
S214002430BDE8F840FFF77CB9F8BD00BF00300E409D
S21400244000400E40002D3101A892000013B5024650
S214002450FFF716FFC8B152B90D4B0191D3F80041F2
S214002460FEF780FEC4F30422019902FB0002094B2A
S2140024701B7843B1084B9A4205D8022002B0BDE84B
S2140024801040FFF7A3BF0020F8E702B010BD00BF62
S21400249000400E404A3C0020002D31010378134ACC
S2140024A0002B437870B514BF04260026002B8378D3
S2140024B0946914BF02250025002B037924F03F04FD
S2140024C043EA0403C47814BF08210021012C08BF86
S2140024D043F0010333432B430B4393611368417965
S2140024E023F4403343EA0143136070BD00300E40CE
S2140024F0224B4AF6E85210B5596B5A639A6FD207C8
S214002500FCD41B6C13F003031EBF1D4A0124C2F843
S214002510B44A834204D110B9194BC3F8B40A10BDAB
S214002520032B00D09BB9431E012B10D8134A4FF43F
S2140025300023D362936FDB07FCD4136C23F00303F2
S21400254043F0010313640D4A536A1C03FCD50B4B7E
S2140025509A6FD207FCD41A6C22F0030202431A6464
S2140025609A6F12F00102FBD10038054C18BF01200B
S2140025700129C4F8B40A08BF5A63D0E700300E40F9
S2140025800000C6432DE9F04FA0F5E16389B00024B2
S214002590B3F5966FCDE90244CDE90444CDE906448F
S2140025A006468A46934605D940F6EE215548FFF77B
S2140025B02DF8A3E0B0F5E16F534B8CBF012200224B
S2140025C049D1D3F81832C3F30721DBB2079104933D
S2140025D04FF416754FF4966748E0BBF1000F0ED027
S2140025E0D9F85C2022F4FE4222F00202B6F5E16F32
S2140025F042EA012218BF02200243C9F85C20BAF161
S214002600000F26D020460021FFF7A4FE044610B98E
S21400261040F64B31CAE701214046FFF79BFE0446D1
S21400262010B940F65331C1E7384A536EBD4238BF41
S2140026303D4623F4FF73E72D23F0010328BFE7256B
S214002640B6F5E16F18BF43F0010343EA450353664E
S21400265054E0012452E0D3F81832190EC3F30743AE
S214002660079104934FF496654FF4E167DFF89C906A
S214002670D9F84C400192C4F30174234605A902A878
S214002680FFF708FED9F8EC30019AC3F30128434659
S21400269006A903A8FFF7FEFD049BF01B079FF91A87
S2140026A04143B1FBF5F299182CBF012300238F425A
S2140026B01ED3EBB9069A039FD31B4343B3FBF5F334
S2140026C0FF182CBF01230023BA4211D383B9059B00
S2140026D0029AA3EB020C00FB0CF0B0FBF5F55519C3
S2140026E02CBF01200020AB4202D300283FF475AF78
S2140026F0044840F63C31FEF789FF0024204609B026
S214002700BDE8F08FA89200000081E00F00300E4078
S214002710334A08B5136FD16C11F0010F03F00603AE
S21400272044D0002B42D0132857D9143813288CBF16
S214002730102308232A49013BCA6C180322F47F425F
S21400274040EA03231343CB64264BCA6C1B88C2F3B0
S21400275003222833013202EB820003EB5303B3FB60
S214002760F0F3C86C013B072B28BF072320F0EE6070
S21400277040EA036343F48013CB641B4BB3F9003089
S214002780002B12DB03F12800C0F34E03034450086D
S21400279000EB4202B3FBF2F20B6D072A28BF0722BA
S2140027A023F0700343EA02120A6508BDD16C01F0FB
S2140027B00101194304D109280FD90A380928B6E7B8
S2140027C0D26CD20702D50BB92728B0E7074840F6E7
S2140027D09131FEF71BFF0023ACE70423AAE700BFF6
S2140027E000300E40463C0020483C0020A8920000E6
S2140027F00C4BD3F8803910B5044633B9012804D9F8
S214002800094840F6AF31FEF701FF084A136F23F080
S214002810070323431367064BBDE810401888FFF7ED
S21400282077BF00BF0000C643A892000000300E40ED
S214002830443C002038B55A4B02229A639B6B03F047
S2140028400F039342044607D0564840F64B21FEF746
S214002850DDFE0025284638BD0389C82B04D951481B
S21400286040F65521FEF7D2FEA28823899A4204D963
S2140028704C4840F65621FEF7C9FEB4F90C30C82B7A
S21400288004DD484840F65721FEF7C0FE6378012B6A
S21400289055D1A388C82B04D940F65B214148FEF7E2
S2140028A0B5FEE28842F210739A4204D93D4840F6DB
S2140028B06821FEF7ABFEE3884A2B48D9B3F5FA7FCA
S2140028C047D340F6C312934294BF4FF000524FF0E6
S2140028D040523349B4F90C00CB6C23F0405323F03C
S2140028E001030028A8BF43F001031343CB64D1F8CB
S2140028F0EC30A28843F44073C1F8EC302A4B1A80BF
S214002900CB6E43F08073CB66284BD3F8800900B1BA
S2140029100420FFF76DFF264B21891980254BB4F95B
S2140029200C20A0881A80FFF7F3FEA37BA3B1012B2F
S21400293022D01C4840F6CE01FEF768FE0FE0022BC0
S214002940AFD1A3880A2BACD94FF42661A6E70022A4
S214002950BFE74FF08052BCE7114B174A9A65012239
S21400296060881146FFF70EFE054640B90D4840F652
S2140029709F21FEF74BFE6DE7094B104AEEE7084A2B
S214002980D36B43F48063D3636078FFF7B1FDA37A1B
S214002990A3F1200253425341044AC2F8943759E740
S2140029A000300E40A8920000443C00200000C643C1
S2140029B0463C0020483C002077402057372110B77F
S2140029C038B50D46044618B3012824D0022825D071
S2140029D0032826D004280ED0052825D0831F012BD7
S2140029E009D9082823D0092823D00A2803D1072389
S2140029F0EB40DB0704D4104840F21341FEF706FE16
S214002A0030200E4B0121444301FA05F51D5138BD17
S214002A1040F2FF33ECE74FF6C073E9E740F6FF738A
S214002A20E6E74FF47F43E3E74FF6FF73E0E70F2355
S214002A30DEE74FF44043DBE7B08E00000CA0004614
S214002A4038B50D46044618B3012824D0022825D0F0
S214002A50032826D004280ED0052825D0831F012B56
S214002A6009D9082823D0092823D00A2803D1072308
S214002A70EB40DB0704D410484FF47971FEF7C6FD2F
S214002A8030200E4B0121444301FA05F51D5138BD97
S214002A9040F2FF33ECE74FF6C073E9E740F6FF730A
S214002AA0E6E74FF47F43E3E74FF6FF73E0E70F23D5
S214002AB0DEE74FF44043DBE7B08E00000CA0004496
S214002AC070B505460E461446FFF7B2FB296881EA44
S214002AD0040202EA06044C402C60BDE87040FFF792
S214002AE0ABBB0000032838B504460D4607D90428BA
S214002AF008D0052803D0A0F10803022B02D835F031
S214002B00011303D008487D21FEF780FD3020604386
S214002B1000F180402A464FF00111BDE8384000F52C
S214002B202040FFF7CDBF00BF1D9300002DE9F04108
S214002B300E4615461F46044600285FD0012860D082
S214002B40022861D0032862D004280ED0052861D060
S214002B50831F012B09D908285FD009285FD00A28CF
S214002B6003D10720F040C30703D43748BF21FEF740
S214002B704DFD86EA050333F0030303D03248C12136
S214002B80FEF744FD072D06F003064FF00F0149D867
S214002B904FEA85082D4804FA08F201FA08F1FFF713
S214002BA08FFF03212A4806FA08F201FA08F1FFF718
S214002BB087FF1F2D03D927489121FEF727FD264CB6
S214002BC02C44A4001F2D276003D922489121FEF72C
S214002BD01DFD9DF81830C4F88030204A0123AB4014
S214002BE01F2DC2F8243403D91A489121FEF70EFD92
S214002BF09DF81C30C4F80033BDE8F08140F2FF3089
S214002C00B0E74FF6C070ADE740F6FF70AAE74FF4A6
S214002C107F40A7E74FF6FF70A4E70F20A2E74FF428
S214002C2040409FE7A5F108084FEA88080C4804FAD8
S214002C3008F201FA08F1FFF743FF0321094806FAF4
S214002C4008F201FA08F1B2E71D93000000A4004064
S214002C5008A40040939300008020851000A0004048
S214002C6004A400400CA40040F8B50D4616461F46C6
S214002C700446D8B301283CD002283DD003283ED0D5
S214002C8004280ED005283DD0831F012B09D908281B
S214002C903BD009283BD00A2803D10723EB40DB07AB
S214002CA004D4274840F21D11FEF7B0FC26B1294691
S214002CB020467FB3FFF784FE3020604300F180405B
S214002CC0072D00F5204028D84368AA000F21914020
S214002CD023EA010306FA02F21343436076BB294651
S214002CE020463FB3BDE8F840FFF76ABE40F2FF3328
S214002CF0D4E74FF6C073D1E740F6FF73CEE74FF444
S214002D007F43CBE74FF6FF73C8E70F23C6E74FF4C2
S214002D104043C3E7FFF794FECEE7A5F108038268B9
S214002D209B000F21994022EA010206FA03F313439F
S214002D308360D3E7BDE8F840FFF782BEF8BD00BF6A
S214002D401D930000022838B504460D4603D91148E5
S214002D504C21FEF75BFC6B791F2B03D90D484F21E6
S214002D60FEF754FCAB786A789B0143EA82032A7824
S214002D701343EA7843EA02132A7943EAC2236A79BC
S214002D8043EA0233AA79043443EA42432401024A5E
S214002D90135138BD0994000000200440014B186010
S214002DA0704700BF00008442427801790378002A09
S214002DB0827870B514BF04260026002AC27814BF95
S214002DC010250025002A42794FEA023242EA012203
S214002DD042EA0302837914BF20240024002BC3791F
S214002DE042EA034343EA0603027A43EA050314BFB2
S214002DF04FF4004100212343002A14BF4FF4003251
S214002E0000220B431343014A136070BD00200440A8
S214002E1070B506460C46154622B90D484FF4227189
S214002E20FEF7F4FB1CB90B48FEF71EFE04460A4BE1
S214002E306D00013CB4FBF5F413EA04234FEA0425C5
S214002E4004D0034840F2A521FEF7E0FB756170BD93
S214002E507F94000040410500070080FF38B51E4BF8
S214002E601E4D984204460ED0A8420CD003F50063CF
S214002E70984208D003F58063984204D0184840F280
S214002E802E41FEF7C3FB40F6AA63E36041F205025B
S214002E90002323606260134AA3606361E364A26454
S214002EA023666367A367E3670B4B9C4209D0AC427B
S214002EB007D003F500639C4203D003F580639C4271
S214002EC001D1002323650023AC42A36502D0064A45
S214002ED0944200D1E36538BD000001400004014083
S214002EE07F940000F9FF0100000C014038B52A4B22
S214002EF0984204460D4610D003F5806398420CD0E5
S214002F0003F58063984208D003F58063984204D0A6
S214002F1022484FF45671FEF779FB2046FFF79EFFD6
S214002F20A97B2A8A2368002942F0010214BF4FF4C5
S214002F308061002113430B432A7D23602368002A07
S214002F4014BF4FF00052002213432360AB7C1BB12A
S214002F50EB7C43F08003A3652B7B43F480536360D4
S214002F60D5E901122046FFF753FF6B7B0BB1102308
S214002F70E3606B7D1BB1236843F480332360AB7D35
S214002F80EA7D1B07120503F0E04302F4E002134358
S214002F9023662B78E36038BD000001407F94000074
S214002FA003695B06FCD54163704700002DE9F047D6
S214002FB0374FDDE908840646154699468A4641B9E4
S214002FC0082323704FF4D963A360324B6760E36035
S214002FD0FEE75AB1531E134208D00823237040F26E
S214002FE0CB63A3602B4B6760E360FEE7FFF727F930
S214002FF0002D08BF04254D4538BF4D46D6F808E0DD
S2140030006B1E13EA0E0FC5F1000202EA0E0208BF9D
S2140030100025154409F1FF33AA4413EA0A0FC9F143
S214003020000202EA0A0208BF4FF0000902EB090399
S21400303072680132A2EB0E01A3EB0E0E71458446B8
S21400304015491AD2B8F1000F02D09B1AC8F8003002
S214003050162540F22273C4E9023125706760604687
S214003060FFF7F3F840F2D763A3600A4B257067605A
S214003070E36000252846BDE8F087B3600023237090
S2140030804FF4E563C4E902316760FFF7DEF8F1E765
S214003090F6940000979500007F95000030B50C462A
S2140030A085B011461D461BB9039200F019F8039926
S2140030B0064801950023009304220123002C18BF24
S2140030C02046FFF773FF05B030BD00BF3410002068
S2140030D0024B00221A6002F0EBBF00BF4C600020DB
S2140030E0FEE702F0FDBF0000014B1860704700BF0E
S2140030F04C6000201FB5104B1B78012B07D1FFF743
S214003100A7F8B0B94FF0FF3005B05DF804FB68468D
S21400311000F06CF99DF800100029F3D101206A46F2
S21400312000F0F2FD9DF80000003818BF0120404274
S214003130EAE76FF00500E7E7FC6400201FB5FFF73D
S21400314087F848B9074B1B78012B02D0684600F079
S21400315051F84FF0FF3001E06FF0050005B05DF864
S21400316004FB00BFFC640020704700002DE9F0411E
S214003170044608B9FFF7B4FFFFF76AF8194E1A4D70
S214003180074638B12023237040F21933C4E90235CC
S2140031906660FEE7154B1B78012B08D002232370D0
S2140031A0666040F21D33C4E90235BDE8F081DFF801
S2140031B0408098F80030F92B05D91E2323706660EE
S2140031C040F22233EFE7FFF73AF898F80030013381
S2140031D088F80030FFF739F82770666040F22D3324
S2140031E0E1E700BFB0950000C8960000FC64002030
S2140031F0FD64002070B5044608B9FFF771FF264B42
S2140032001E78012E09D013232370244B636040F2EE
S214003210F633A360224BE360FEE7224B1B88022BAB
S21400322009D8092323701D4B636040F20143A36055
S2140032301B4BE360FEE71C4D2B784BB11F2323701E
S214003240164B636040F20443A360154BE360FEE751
S214003250FFF708F848B11F232370104B636040F255
S2140032600743A3600E4BE360FEE701F01DFD0F4B26
S2140032700F4A18700F4B2E7018700C2358430E4BC5
S2140032801B5813600D4A136001F0BCFF02F04EFF9E
S214003290BDE87040FFF724BFDE610020B095000057
S2140032A09D9600001C660020FC640020F361002050
S2140032B010660020F2610020FC6100200C660020F1
S2140032C008B501F0F1FCA0F140035842584108BD92
S2140032D030B14368C1F8EC308368DB68C36170477F
S2140032E091F83030022B03D0072B05D0034B00E0BB
S2140032F0034BC1F8EC307047024BFAE7A8A0000079
S214003300359600003C960000044BC1F8EC3018B12E
S214003310826802B1D368C361704700BFA8A00000EE
S2140033200023C0E9003303817047036810B533B942
S21400333001220281C1E90933016041601CE0028973
S21400334091F833400132028193F83320A2420CD820
S2140033505B6A002BF8D14B6243688B625962ECE7DC
S214003360C1E909325162996206E09A6A002AF7D1E9
S214003370C1E909329962016010BDC36A5BB19A68FF
S214003380526A4AB9C3E902221A8A013A1A8200230B
S214003390C0E90933C3627047D0E9092111B99162C7
S2140033A09A60F1E74A620AB9D960EDE79162EBE705
S2140033B038B5C56AAB685B6A4BB1FFF7DEFFC5621E
S2140033C0014605F10800BDE83840FFF7AEBF38BD3E
S2140033D0054B40220021013AC3E90011198103F18F
S2140033E00C03F8D1704700BFFC610020F8B5044616
S2140033F008B9FFF775FE964D6A68D2B12B68954EF0
S2140034004BB92346296B94489200FFF747FE30607D
S21400341023780BB1F8BD3360904B32681A60904A3F
S2140034206B6813608F49904A9B0013600A681344C8
S2140034300B602A89B2B12346296B8C481201FFF72C
S2140034402DFE8B4B18602378002BE3D1894B8A4ADC
S21400345018602B8913808349884A1B0113600A6809
S21400346013440B606A69002A27D02B69844E002B10
S21400347062D12346296B83489200FFF70FFE306027
S2140034802378002BC6D1804B2A7E1A707F4BEA69C0
S2140034901A607F4B32681A606B69EA6864215A4387
S2140034A0B2FBF1F27B490A607B4A6E4913607B4AA5
S2140034B09B0013600A6813440B606A6A002A28D0CF
S2140034C02B6A774E002B39D12346296B754892001C
S2140034D0FFF7E4FD30602378002B9BD1724B95F804
S2140034E028201A70714B32681A606B6AEA68642189
S2140034F05A43B2FBF1F26E490A606E4AE96A1360FB
S2140035006D4A9B0013606D4A116056490A68134461
S2140035100B606B4E6B6B336002F0BCFE03F008FD75
S214003520054668B101232370664B63604FF4D7737A
S214003530A360654BE3606DE73360A4E73360CDE7D7
S21400354003F0F6FD3368984209D2092323705D4BD9
S21400355063604FF4D973A3605B4BE360FEE703F050
S214003560E7FD3368594F984240F0D8803D60326896
S214003570B2F57A7F07D900230020012104F0E2FD8E
S2140035804FF47A754543524B524A1D600023137020
S214003590514A1370514A1360514A1360514A1370CE
S2140035A0514A1370514A2046137002F0EFFA0A236C
S2140035B0B0FBF3F04E4B18602578002D7FF42AAF51
S2140035C0274A136853B12549086838B10146013BBC
S2140035D041F8045BFBD1116802F042F8454B002528
S2140035E01D7001F059FBFFF7F3FE434B1D60434B84
S2140035F01D80214B1B88002B40F09C80404A0023F6
S2140036001360404A1380404A1360404A1380404A81
S2140036101360404A2046138001F09EFF2378002B5B
S2140036207FF4F8AE204601F0B9FD2378002B7FF436
S214003630F1AE204602F072FC2378002B7FF4EAAE4F
S21400364000F018FCFFF790FD334B01221A70E1E6FC
S2140036504810002054600020459600005860002066
S2140036605C600020506000206060002058960000DB
S21400367064600020686000206C600020706000209D
S2140036807C6000206A96000074600020786000204D
S2140036908060002084600020886000208C6000200D
S2140036A09C6000208396000094600020A0600020AC
S2140036B0A4600020A8600020AC6000209860002075
S2140036C090600020B0950000D4960000B460002002
S2140036D0B0600020FC640020FD6400200C66002022
S2140036E010660020F2610020F361002004650020CF
S2140036F0006500201E660020D8610020DC610020E6
S214003700EC610020F0610020F4610020F8610020E8
S214003710086500200C650020DE61002003F008FD2F
S2140037202B4602460121002004F00CFD3368584366
S21400373038601CE7204600F0B3FF2378002B3FF4E8
S2140037405DAF67E690F833300B490C22534330B533
S214003750CA58CC1832B901252581C0E90422C850C0
S214003760606030BD258901352581002402614461F1
S2140037705061C850F5E700BFFC61002090F8332088
S2140037800B490C235A4330B58C588B1834B9012595
S2140037901D81C0E904448850586030BD1A89013242
S2140037A01A81002202615A6842611061F4E700BF84
S2140037B0FC61002010B5044690F8330001F084FA4E
S2140037C0084B94F833201B789A42204606D1FFF720
S2140037D0D5FF2046BDE8104004F0EDBBFFF7B2FF72
S2140037E0F7E700BFF261002038B50C4691F83210BA
S2140037F007290546049807D80239052906D8DFE8C0
S21400380001F0060605052525FF293AD138BDA26731
S214003810A4F87C30606415B12046FFF7AEFD214663
S2140038202846FFF771FD94F83230032B06D104F1D9
S214003830540003F0B7FB08B1FFF752FC2046FFF731
S214003840B9FF0023238684F83230DFE7A267A4F8A6
S2140038507C30606415B12046FFF78FFD2146284670
S214003860FFF752FD94F83230072B06D104F15400CE
S21400387003F098FB08B1FFF733FC002323860423EC
S214003880E1E7BDE83840FFF72BBCD0E900329342B1
S21400389010B50FD01C690021A24215BF6161C3E9B3
S2140038A00412C3E90412C2E9043116BF13610260B0
S2140038B00460436010BD000070B50446D4E90435CA
S2140038C090F83300124A0C21BDB973B9414355181C
S2140038D053502B816B6001F00DFA0023C4E90433CA
S2140038E02046BDE8704004F07CBB4843161831897A
S2140038F0013931815D611350EFE701FB0022118928
S214003900013911812B610BB95560E6E75D61E4E78B
S214003910FC61002013B5044670B1084B1B78012BE0
S2140039200AD10023CDE90033054A416F0346054816
S21400393003F096FB044B1C6002B010BD046500202B
S214003940E93B0000BC600020B8600020F8B50446E3
S214003950A8B1114B1B78012B11D1056F0F4E7DB905
S2140039600F4B1F6803F0E4FB32682B46511E0D46D2
S2140039701946E7FB0051284604F0E4FB6067F8BDF3
S21400398003F0D6FB32680023511E0E461946E5FBAF
S21400399000613046F0E700BF04650020906000201C
S2140039A0006500202DE9F7435E4B1B78012B00D005
S2140039B0FEE75D4B93F80080B8F1000F40F096806C
S2140039C0FEF73DFC594F5A4C97F80090594D064665
S2140039D001F06AF940280346387000F08A800C200F
S2140039E0DFF85C814343B9F1400F58F80330236099
S2140039F003D101F0F9FCAFF3008022682B68DFF8F2
S214003A0044919A4218D1002001F016FE012802D0F7
S214003A10286802F05DFC99F800303BB12068436FDF
S214003A200BB9FFF793FF2068FFF774FF304603B02B
S214003A30BDE8F043FEF709BC99F800301BB3DFF889
S214003A400891D9F800305B6FEBB13B4801A903F051
S214003A502BFB30B9D9F80030019A37485A6703F083
S214003A60A1FAD9F800305A6F6AB993F8330000EB20
S214003A70400008EB8000FFF708FF3B780C2253431A
S214003A8058F8033023602268D2F8C0300133C2F8F9
S214003A90C0302A4A1368013313603B78402B33D07A
S214003AA02B682268934215D0A3B102F019FB2B684D
S214003AB0D3F8C83098421FD302F012FB2B68D3F815
S214003AC0C830C01A2A68D2F8CC30C2F8C4001844ED
S214003AD0C2F8CC00246802F003FBC4F8C80002F069
S214003AE064FB3046FEF7B1FBBFF36F8F03B0BDE853
S214003AF0F083C4F80080CCE702F0F2FA2B68D3F823
S214003B00C820D2431044DDE701F066FC2C681CB1E7
S214003B1002F0E6FAC4F8C80004F0ECF8AFF3008050
S214003B20DDE700BFFC640020FD640020F361002098
S214003B30106600200C660020BC6000201466002082
S214003B40FC61002004650020B86000202DE9F041EB
S214003B50044608B9FFF7C4FAFEF77AFB1E4F1F4E5D
S214003B6038B12023237040F24533C4E9023667603B
S214003B70FEE71B4B1B78012B08D0022323706760DF
S214003B8040F24933C4E90236BDE8F081DFF85480DC
S214003B9098F800302BB91F232370676040F24E332D
S214003BA0F0E7FEF74CFB98F80050013DEDB288F8C0
S214003BB000503DB1FEF749FB2D232370676040F2AD
S214003BC05633DFE7FEF741FBFFF7ECFE2570676034
S214003BD04FF45873D6E700BFB0950000BA960000C1
S214003BE0FC640020FD64002038B50E4B1B78012BCA
S214003BF00D4616D1FEF723FB00236B670A4B1B68A6
S214003C0093F833300446094803EB430300EB830084
S214003C10FFF73BFE2046FEF718FBBDE83840FFF7EF
S214003C20C1BE38BD04650020B8600020FC610020DD
S214003C30F8B50C46FEF703FB94F83230013B074616
S214003C40062B48D8DFE803F0544704475B470400D8
S214003C5094F83030042B08BFE36A4FF0000608BF24
S214003C605D6AA667A4F87C6018BF354602F038FA8D
S214003C7060642046FFF781FB94F83230032B31D185
S214003C80FFF798FD84F832604FF44073238615B32F
S214003C9095F8333095F834209A421CD094F83320A7
S214003CA09A4218D1284600F0E7FE95F83430834251
S214003CB028BF0346D9B295F833308B420BD028463E
S214003CC001F00CFE284603F041FD95F8332001462E
S214003CD02E2003F0E9FE3846FEF7B7FABDE8F840B6
S214003CE0FFF760BE072B04BF042384F83230CBE70F
S214003CF0002384F832302046FFF75CFDEBE7042310
S214003D0084F83230E7E700002DE9F04105460E461C
S214003D1014460AB9FFF7E4F9002323701E4B6360CC
S214003D2040F27D33A3601D4BE360FEF788FADFF8B0
S214003D3080800746E6B1C8F80060194B012D1A7856
S214003D401FD0012A0FD1174C17482168002574315F
S214003D501D7003F0A9F908B123685D67124803F0E7
S214003D6021F9002323603846BDE8F041FEF76DBA1E
S214003D70204601F00BFF0A23B0FBF3F0C8F8000062
S214003D80DBE7002AEFD1094C1D702068FFF7DEFD47
S214003D902068FFF7BFFDE6E7B0950000A596000097
S214003DA004650020B8600020BC6000200C6600207F
S214003DB000650020F7B504460D4611B303F0B8F9C8
S214003DC0114B1A680026571E46F1FF31E5FB0071BD
S214003DD03346384604F0B6F9CDE9006601460B4A8C
S214003DE0234604F1540003F03BF908B1FFF778F9D5
S214003DF00323204684F8323003B0BDE8F040FFF7D6
S214003E005BBD0223F5E700BF90600020313C000058
S214003E1037B5144D0B4611462A6882F83030002319
S214003E2082F83130104A127804463AB10F4A1048E8
S214003E3012680191536703F0B5F801992868FFF7F7
S214003E40B9FF64B1296804F10800CC62FFF76DFA87
S214003E502968204603B0BDE83040FFF739BA2B6822
S214003E60DC62F5E70C66002004650020B8600020E0
S214003E70BC600020774B1B7882B0DBB28DF8053033
S214003E80754B1B68DBB28DF80730744B1B78DBB2C2
S214003E908DF80530724B1B78DBB28DF80530714B10
S214003EA01B68DBB28DF807306F4B1B6ADBB28DF8F0
S214003EB007306E4B1B78DBB28DF805306C4B1B78E9
S214003EC0DBB28DF805306B4B1B88DBB28DF8063005
S214003ED0694B1B88DBB28DF80630684B1B78DBB26B
S214003EE08DF80530664B1B88DBB28DF80630654BC7
S214003EF01B88DBB28DF80630634B1B88DBB28DF86F
S214003F000630624B93F82830DBB28DF80730604BF2
S214003F101B78DBB28DF805305E4B1B88DBB28DF864
S214003F2006305D4B1B88DBB28DF806305B4B1B887A
S214003F30DBB28DF806305A4B1B88DBB28DF80630A4
S214003F40584B1B88DBB28DF80630574B1B88DBB20C
S214003F508DF80630554B5B8DDBB28DF80730544B31
S214003F601B78DBB28DF80530524B1B88DBB28DF820
S214003F700630514B1B78DBB28DF806304F4B1B6A70
S214003F80DBB28DF807304E4B1B78DBB28DF8053070
S214003F904C4B1B88DBB28DF806304B4B1B88DBB2D4
S214003FA08DF80630494B1B68DBB28DF80730484B5E
S214003FB01B78DBB28DF80630464B1B78DBB28DF8EB
S214003FC00530454B1B78DBB28DF80530434B1B782C
S214003FD0DBB28DF80530424B1B78DBB28DF805302E
S214003FE0404B1B78DBB28DF805303F4B1B78DBB2BD
S214003FF08DF805303D4B1B88DBB28DF806303C4B08
S2140040001B78DBB28DF805303A4B1B88DBB28DF897
S2140040100630394B1B88DBB28DF80630374B1B78E1
S214004020DBB28DF80530364B1B88DBB28DF80630D8
S214004030344B9B8CDBB28DF80730334B1B88DBB2DE
S2140040408DF806309DF805309DF806309DF807304F
S21400405002B07047881000208410002080100020D6
S214004060D86000208C100020DC600020901000201B
S214004070046100209210002094100020961000206A
S2140040809C100020981000209A1000200861002044
S2140040909E100020A0100020A2100020A4100020D7
S2140040A0A6100020A8100020AA10002038610020CA
S2140040B0AC100020AE100020B81000206861002070
S2140040C0B9100020BA100020B0100020B410002054
S2140040D0BE100020BC100020BD100020C210002022
S2140040E0C3100020C5100020C4100020C6100020F9
S2140040F0C8100020C0100020CA100020CC100020DD
S214004100CE10002090610020D010002010B4074C84
S2140041102468A4F8AC200022C4F8A410C4F8A82090
S21400412001215DF8044B1A46FFF772BE0C660020AC
S2140041302DE9F04F2DED028B83B0DDE90E6408EE1D
S214004140102A05468A4698460CB9FEF7C9FF0FFAAC
S21400415088F3002B0093C0F25081FEF779F8002810
S21400416000F04681202323709C4B636040F2351399
S214004170A3609B4BE360FEE71F232370974B6360AF
S21400418040F23913A360964BE360FEE702232370E8
S214004190924B63604FF49F73A360914BE3604FF0C4
S2140041A0000B57E047F6FF6308EA0303581E012892
S2140041B00DD9042B0BD0082B09D008232370874B6E
S2140041C063604FF4A373A360854BE360FEE7286843
S2140041D0844B984209D00C232370804B63604FF4C5
S2140041E0AC73A3607E4BE360FEE708F48073019334
S2140041F00EB100233360FEF722F808F00F09B9F17C
S214004200040F074607D0B9F1080F42D0FEF71DF895
S214004210FEF766FF7AE02A6A3AEA020302EA0A0B27
S2140042201ED1019B13B122EA0B022A626E4A126863
S2140042300AB1C2F8A8B00EB16A6A32603846FEF714
S21400424004F800222270654A62604FF4BB72A260D6
S214004250634AE260584603B0BDEC028BBDE8F08FBF
S214004260009B002B08DAFDF7F0FF1D2323705B4B45
S214004270636040F27D138FE75C4B1B78002B3BD0CE
S214004280FDF7E3FF2D232370544B63604FF4C27396
S21400429082E72A6A12EA0A0B16D0019B13B122EAB9
S2140042A00B022A62504A12680AB1C2F8A8B00EB1D0
S2140042B06A6A32603846FDF7C8FF00222270474A15
S2140042C062604FF4D172C2E7009B002B08DAFDF75C
S2140042D0BCFF1D222270414A626040F2A912B6E776
S2140042E0424B1B7843B1FDF7B0FF2D2222703B4AAC
S2140042F062604FF4D872AAE7284618EE103A424693
S2140043005146FFF703FF3846FDF79FFF364FFFF78E
S21400431049FBFDF794FF3B6893F83120032A4BD8FE
S214004320DFE802F002263E320EB15B6C33600023FB
S21400433023702A4B636040F22D23A360284BE36072
S2140043403B68D3F8A8B0019B4BB1B9F1040F02D07B
S214004350B9F1080F3AD12A6A22EA0B022A62FDF75F
S21400436074FF002222701D4A626040F26F226EE7E0
S2140043700EB15B6C3360FDF768FF21232370174B8B
S21400438063604FF40E7307E70EB100233360FDF74A
S2140043905CFF22232370114B636040F24123FBE64F
S2140043A00EB15B6C3360FDF750FF312323700B4B6F
S2140043B063604FF41373EFE60090FDF746FFFEF7D9
S2140043C08FFE23780098002BBAD0E8E60090FDF721
S2140043D03CFFFEF785FE0098C1E700BFDB960000B5
S2140043E06B970000464C41470C660020FD64002099
S2140043F0FDF738FF00287FF4BFAE094B1B78012B72
S2140044007FF4C4AE002D7FF4CDAE0A232370054B97
S214004410636040F24313A360034BE360FEE700BF14
S214004420FC640020DB9600006B970000054B064AF4
S214004430C36100234361136883610BB91060704742
S2140044405861FBE7A8A00000D86100202DE9F84FCE
S21400445005460F4693461C460BB9FEF741FEFDF790
S214004460F7FEDFF88490DFF88480064638B1202314
S21400447023705523C4E90238C4F80490FEE73DB91A
S2140044800A2323705823C4E90238C4F80490FEE7D0
S214004490FDF7D5FE282231468246284604F01EF84F
S2140044A00F4BC5F820B0C5E9003705F10800FEF748
S2140044B037FF2846FFF7BAFF0A4A138801331380EE
S2140044C029463A46372003F0FBFD5046FDF7BDFE71
S2140044D070232670C4E90238C4F80490BDE8F88F4B
S2140044E0464C4147DC610020DB96000076970000D2
S2140044F010B50023038690F83230C0F8A8100446A2
S2140045004264072B1AD8DFE803F0121204041212D2
S2140045101717032B05D1543002F044FD08B1FEF7FF
S214004520DFFD2046FFF746F9002384F832302046A8
S214004530BDE81040FEF721BF0423F6E7FEF7D0FDE6
S214004540F5E700002DE9F84305460F4616461C46DB
S2140045500BB9FEF7C5FD4E4B1B78012B0CD0022382
S21400456023704C4B636040F23233A3604A4BE360E7
S21400457000252846BDE8F8834DB90A232370454B2D
S214004580636040F23733A360434BE360FEE747F6D1
S214004590FE731E4209D0082323703E4B636040F230
S2140045A03A33A3603C4BE360FEE72A683B4B9A42F3
S2140045B009D00C232370374B63604FF45073A3600D
S2140045C0354BE360FEE701F08BFD8146FDF737FED5
S2140045D0B6F5004F80460BD048F201039E421BD032
S2140045E036B1012E18D0FDF730FEFEF779FD02E059
S2140045F0296A39432962AF68C5F8249087B94046CE
S214004600FDF723FE234B636040F262332770A360FE
S214004610214B2D6AE360ACE7296A21EA0701E9E746
S21400462038467F6AB0F8AC3003F00F03042B07D08F
S214004630082B0FD04046FDF708FEFEF751FD0EE0B2
S214004640D0F8A4102B6A31EA030308D14A46FFF7D4
S2140046504FFF04E0296AD0F8A4301940F6D1002FA5
S214004660DED14046FDF7F1FD330401D4FFF79AF999
S214004670FDF7E5FD2D6AFDF7E8FD00232370054BE9
S214004680636040F2A333A360034BE36071E700BFAF
S214004690FC640020DB96000060970000464C414713
S2140046A0154BF0B51C68154B1E880025721E04F1CC
S2140046B0100192B22B46AFB2BA4213D8110104EBE6
S2140046C00212635053601381D3600D4A1381D38066
S2140046D09680146003700B4B43605D2383600A4B27
S2140046E0C360F0BD41E9041321F8083C41F8043CDE
S2140046F001351031DFE700BF686000206C600020E5
S214004700E06100208397000007980000428910B5FA
S21400471082B1094B01681C680C6041681960D98831
S214004720891AD9809988114499800023C0E90033FA
S21400473043818381104610BDE061002038B50446F1
S2140047400D461022002103F0C9FE258138BD000069
S2140047502DE9F74F0C9C06468A4617461D460CB9AF
S214004760FEF7BEFCFDF774FD48B120232370864B90
S214004770636040F23313A360844BE360FEE74EB9F8
S2140047800A232370804B63604FF49B73A3607F4BB8
S214004790E360FEE7C7F30E034BB1082323707A4BA2
S2140047A0636040F23913A360784BE360FEE732683B
S2140047B0774B9A4209D00C232370734B636040F208
S2140047C03D13A360714BE360FEE73FB2002F0CDBA6
S2140047D0FDF748FD48B11F2323706B4B63604FF411
S2140047E0A073A360694BE360FEE76A4B93F8009002
S2140047F0B9F1010F1CD1FDF722FD96F82830DFF83D
S2140048009CB18046F3B9DBF80030736286F82890D6
S2140048100DB1F26A2A609A6B326240469E63FDF7DB
S21400482014FD00232370584B63604FF4AA7305E011
S21400483002232370544B636040F24513A360534B2E
S214004840E36014E0D6F82490DBF80020914521D1EF
S214004850FF2BDFF834914D4F0CD1FDF7F6FC1E23ED
S2140048602370C4F8049040F25D13C4E9023703B025
S214004870BDE8F08F013386F828300DB1F36A2B605F
S2140048804046FDF7E2FC23232370C4F8049040F270
S2140048906913EAE7002F0BDAFDF7D7FC0DB100230A
S2140048A02B601D232370384B63604FF4BB73C5E742
S2140048B0394B1B785BB1FDF7C8FC0DB100232B60AC
S2140048C02D232370304B63604FF4C173B6E792F824
S2140048D0331099F833308B420BD9484600F0FEFF70
S2140048E0484602F033FF99F8332001462D2003F0A6
S2140048F0DBF8524604213046FFF78AFA4046FDF7B9
S214004900A4FCFFF74FF8FDF79AFCDBF8003093F8AD
S2140049103120032A32D8DFE802F00213271D0DB13A
S2140049205B6C2B6000232370174B63604FF4D073CF
S214004930A360164BE36003B0BDE8F04FFDF785BCFF
S2140049400DB15B6C2B60212323700F4B63604FF41B
S214004950D573EDE70DB100232B60222323700A4B9D
S21400496063604FF4DA73E3E70DB15B6C2B603123C1
S2140049702370054B63604FF4DF73D9E70190FEF7B1
S214004980AFFB0198D7E700BF16980000A898000074
S2140049904D555458FC640020FD6400200C66002031
S2140049A0054B064AC36100234361136883610BB954
S2140049B0106070475861FBE7A8A00000EC6100207B
S2140049C02DE9F04705460F4614460AB9FEF788FB60
S2140049D0FDF73EFCDFF88090DFF88080064638B1B1
S2140049E0202323705223C4E90238C4F80490FEE75B
S2140049F03DB90A2323705523C4E90238C4F804904D
S214004A00FEE7FDF71CFC302231468246284603F0BE
S214004A1065FD0F4B05F10800C5E90037FEF780FC81
S214004A202846FFF7BDFF0B4A13880133138029463B
S214004A303A46292003F044FB5046FDF706FC6C235B
S214004A402670C4E90238C4F80490BDE8F08700BFB9
S214004A504D555458F061002016980000B498000098
S214004A60836B00F138028B42186A01D110607047E0
S214004A7003F120020346F6E7836B3F2003B9704735
S214004A809A6822B192F83320904228BF10461B6ADB
S214004A90F4E700002DE9F04F054685B08B46144636
S214004AA00AB9FEF71DFBFDF7D3FBDFF89481604FD4
S214004AB040B12023237040F25723C4E90237C4F8DC
S214004AC00480FEE745B90A23237040F25A23C4E95E
S214004AD00237C4F80480FEE7CBF30E0343B1082385
S214004AE0237040F25D23C4E90237C4F80480FEE771
S214004AF02A68504B9A4208D00C23237040F2612358
S214004B00C4E90237C4F80480FEE74B4B1B78012B40
S214004B100AD002232370C4F8048040F26523C4E957
S214004B20023705B0BDE8F08FDFF818A1FDF787FB68
S214004B306A6ADAF800309A42814608D0FDF785FBAB
S214004B401B232370C4F804804FF41B73E7E701F0BF
S214004B50C7FA95F828300290013BDBB2E86285F888
S214004B6028304BB14846FDF770FB23232370C4F86A
S214004B70048040F27D23D2E7DAF800002946FFF7EA
S214004B806FFFAE685EB96E6285F828604846FDF72E
S214004B905CFB2670C4F8048040F28A23BFE7DAF88C
S214004BA0001091F8333091F834600393B34220D06C
S214004BB00846FFF761FFB04228BF3046039BC6B2E7
S214004BC0B34216D20846FEF777FEDAF8000080F801
S214004BD0336002F0BBFD324601462E2002F064FF31
S214004BE0304600F071F8DAF80000FEF7C7FD134B08
S214004BF01E70A9686962012385F828308B6B2B62CA
S214004C00029B8D63009300231A462846FEF7ECFDB0
S214004C104846FDF71AFB1BF4004F01D1FEF7C2FE13
S214004C2000232370C4F8048040F2AD2377E700BF6A
S214004C309C9800004D555458FC640020F2610020FA
S214004C40169800000C6600202DE9F341846B05469B
S214004C50012714B902B0BDE8F081D4F8208001F035
S214004C603FFA2146E06206462846FFF7F9FEA168AD
S214004C7021B984F8281061624446EAE784F828706F
S214004C808B6B2362002365621A468C63204600966F
S214004C90FEF7AAFDF0E70000024B0022C3E900225F
S214004CA0704700BFC061002008B5064B186828B9D9
S214004CB0586801F02FFA2030C0B208BD01F02AFA79
S214004CC0FAE700BFC06100201F28094A07D84FF046
S214004CD0004323FA00F01368034313607047012370
S214004CE0C0F13F0003FA00F0536818435060704765
S214004CF0C06100201F280A4B08D84FF0004222FA55
S214004D0000F01A6822EA00021A6070470122C0F119
S214004D103F0002FA00F05A6822EA00025A60704722
S214004D20C06100202DE9F3470A9C074689461646CF
S214004D301D460CB9FEF7D4F90FFA86FABAF1000F41
S214004D400ADABFB90A2323706A4B63604FF4937381
S214004D50A360694BE360FEE7FDF77AFA0028F0D01F
S214004D6020232370634B63604FF49173A360624B00
S214004D70E360FEE7C6F30E064EB1082323705D4BD4
S214004D80636040F22913A3605B4BE360FEE73A687A
S214004D905A4B9A4209D00C232370564B636040F25C
S214004DA02D13A360544BE360FEE7BAF1000F0CDB53
S214004DB0FDF758FA48B11F2323704E4B63604FF43B
S214004DC09873A3604C4BE360FEE74D4B1B78012BBA
S214004DD017D1FDF734FA3E6A804606B3013E3E62BE
S214004DE00DB17B6A2B6040463E6AFDF72EFA002323
S214004DF02370404B636040F24313A3603E4BE36076
S214004E0009E0022323703B4B636040F23513A36036
S214004E10394BE3600026304602B0BDE8F087BAF1B1
S214004E20000F0CDA05B12E6040463E6AFDF70DFA1B
S214004E301D2323702F4B636040F25113DDE7314B87
S214004E401B785BB105B12E604046FDF7FEF92D23B9
S214004E502370284B636040F25D13CEE74A46062176
S214004E603846FEF7D5FF4046FDF7EFF9FEF79AFD08
S214004E70FDF7E5F9244B1B6893F83120032A31D857
S214004E80DFE802F00212261C0DB15B6C2B600023DB
S214004E902370184B63604FF4BA73A360164BE3603D
S214004EA03E6AFDF7D2F9B6E70DB15B6C2B602123A5
S214004EB02370104B63604FF4BF73EEE70DB1002311
S214004EC02B60222323700B4B63604FF4C473E4E71C
S214004ED00DB15B6C2B6031232370064B63604FF47F
S214004EE0C973DAE70190FDF7B0F9FEF7F9F8019813
S214004EF0D6E700BFC29800005099000053454D41C8
S214004F00FC640020FD6400200C6600202DE9F347B9
S214004F100646884614460AB9FEF7E2F84EB90A2352
S214004F2023703E4B636040F22623A3603C4BE36055
S214004F30FEE747F6FF5518EA050509D00823237053
S214004F40364B636040F22923A360354BE360FEE7EF
S214004F503268344B9A4209D00C2323702F4B63607F
S214004F6040F22F23A3602E4BE360FEE72E4B1B7808
S214004F70012B09D002232370284B636040F23323B1
S214004F80A360274BE36038E001F0AAF88146FDF7FE
S214004F9056F9B7680546F7B108F4007A0023394693
S214004FA01A467F6ACDF800903046FEF71DFCBAF12F
S214004FB0000F01D0002FF1D12846FDF746F918F46E
S214004FC0004F01D1FEF7EEFC144B63600025257000
S214004FD040F26523D4E7356ADFF840A0DFF840806A
S214004FE06B1C0ED1FDF731F91E2323704FF411739D
S214004FF0C4E90238C4F804A03D46284602B0BDE81D
S214005000F0870135C6E90859FDF71FF940F24F232E
S214005010C4E902382770C4F804A0EEE7C29800007E
S2140050204699000053454D41FC640020054B064A56
S214005030C36100234361136883610BB91060704736
S2140050405861FBE7A8A00000086500202DE9F84F8E
S21400505005460F4693461C460BB9FEF741F8FDF78A
S214005060F7F8DFF88490DFF88480064638B120230E
S21400507023705823C4E90238C4F80490FEE73DB90B
S2140050800A2323705B23C4E90238C4F80490FEE7C1
S214005090FDF7D5F8282231468246284603F01EFA48
S2140050A00F4B2B6005F10800C5F820B06F60FEF7C7
S2140050B037F92846FFF7BAFF0A4A138801331380E8
S2140050C029463A462F2002F0FBFF5046FDF7BDF872
S2140050D073232670C4E90238C4F80490BDE8F88F3C
S2140050E053454D410C650020C29800005A990000B7
S2140050F0F8B5064608B9FDF7F3FFFDF7A0F81F4B15
S21400510000251D801E4B1D601E4B1D601E4B1D8105
S214005110FDF79BF8FDF793F81C4B1C68FDF795F818
S21400512074B9FDF78CF81A4B1D68FDF78EF805BBB1
S214005130184B7360A423B3603570174BF360F8BD4B
S214005140FDF77DF8C4E93355C4F89450C4F8D85038
S214005150C4F8C050A4F8BA50A4F8BC50074600F0F3
S214005160BFFFA4F88C50C4F8C800D4F8E84038460E
S214005170D4E7FDF764F8AC85AD69D6E71265002084
S214005180086600204C670020E061002018660020BA
S214005190F461002066990000FE99000000B5104AF0
S2140051A0104900231370104A8BB013700322CDE908
S2140051B00632CDE904330D4A0890126803920C4A71
S2140051C00C48126802920C4A126801920B4A127836
S2140051D000920B4A00F04EFA0BB05DF804FB00BFDD
S2140051E014650020EB9900000E6500208860002002
S2140051F08460002018650020806000207460002015
S2140052001552000008B500F06BFF014B186008BD92
S214005210D46100202DE9F04F85B06846FFF768FF9F
S214005220684600F0B3FC9DF8003005460BB1FDF76C
S21400523057FF5C4B18684FF00008A842C24642F27F
S214005240107728BF0A20B5FBF0F500F049FF564E50
S214005250814600F045FF3368984267D300F040FF70
S2140052603468041BFCF7EBFF504BD3F800B0C3F8D0
S21400527000A0FCF7EAFF4E4B9C425DD94D4B9C428A
S2140052805ED94D4B9C425FD34C4B9C4295BF4FF42E
S2140052907A7038460A2601260BFB06F3B4FBF0F4B8
S2140052A0B3FBF4F39BB2BB42454A28BF3B46138090
S2140052B0444AFB1A9BB21380434A1188994203D290
S2140052C0B8F1000F00D01380DFF808B1FCF7B7FF85
S2140052D0DBF80080FCF7B9FFB8F1000F37D1FCF718
S2140052E0AEFFDBF80080FCF7B0FFB8F1000F3BD153
S2140052F0364B1A78012A04D1684683F80080FFF7F7
S214005300F7FE00F0F1FFFFF77DFF00F0E9FE304BFF
S2140053101A68A0EB0900824238BF18606A4600216E
S214005320284600F045FC4FF001088EE700F0D8FE56
S2140053303368DB431C1895E7012042F21076ABE792
S2140053400A204FF47A76A7E764200646A4E7FCF71F
S21400535076FFD8F8CC30C8E933A3FCF776FFFCF725
S2140053606EFFD8F8E880B5E7D8F8D030B8F8BC209B
S2140053707343B3FBF4F39BB2BB4228BF3B469A424F
S21400538038BFA8F8BC30A8F8BA3008F1DC0208F13B
S214005390E00140466B4600F041F8FCF750FFD8F8B5
S2140053A0E880A0E778600020D4610020D06100206B
S2140053B07F1A0600FF083D00005A6202FF83D717D7
S2140053C0C861002010650020126500200E650020D0
S2140053D0086600201866002008B500F081FE014B24
S2140053E0186008BDCC61002010B50A4C00F078FEAD
S2140053F02368984208D300F073FE2368C01A064A52
S21400540013681844106010BD00F06AFE2368DB4382
S2140054101844F4E7CC610020D06100202DE9F0416B
S21400542005460F4616461C460BB9FDF759FEFCF717
S2140054300FFF48B1202323702F4B636040F2BC63FC
S214005440A3602E4BE360FEE74FB90A2323702A4B76
S214005450636040F2BF63A360284BE360FEE74EB98B
S2140054600A232370244B636040F2C163A360234B7E
S214005470E360FEE7FCF7E3FE0DB9214B1D68D5F8A7
S2140054800080B8F1000F10D1FCF7DFFE0823C7F844
S2140054900080C6F800802370174B636040F2CC6330
S2140054A0A360164BE360BDE8F081B5F8408018F0C5
S2140054B001080CD1FCF7C9FE0723C7F80080C6F820
S2140054C0008023700C4B636040F2D463E8E7FCF77F
S2140054D0BCFEAA6900231C3252F8041F51B13B607F
S2140054E0EA6BD31A336000232370034B636040F2E9
S2140054F0EF63D5E70133EFE70A9A0000B89A000099
S2140055000C660020064A0023C0F8E4301368C0F892
S214005510E8300BB910607047C3F8E400FAE700BF44
S21400552018660020D0E9392342B90A490B600BB14E
S214005530C3F8E4200023C0F8E8307047C2F8E8302B
S21400554013B9C0F8E4307047C3F8E4200023C0F86D
S214005550E830F6E718660020074A00231360074A7B
S2140055601380074A13600370064B436040F621031E
S2140055708360054BC3607047186600201C660020D9
S214005580146600200A9A0000959A000038B5F022AA
S2140055900446002102F0A2FF1D4BE3600025002117
S2140055A004F18000FFF7CAF8C4E92455C4E92C5575
S2140055B0C4E92655C4E93555C4E93755C4E91C5530
S2140055C0C4E93055C4F8A450A4F8AC50C4F8A850A8
S2140055D0C4F8A050A564E56384F8B850A4F8405019
S2140055E0256584F84C50A4F8BA50A4F8BC5000F0D6
S2140055F077FD4FF080432363402384F83430054B17
S214005600A563C4E93205C4E93955C4F8EC3038BDA1
S2140056108F9A0000A8A00000064A031F1C3053F80B
S214005620041F914203D18342F9D101207047002024
S214005630704700BF4523CDAB08B9084B1868026811
S21400564083699A4207D3C16B03EB8100824202D280
S2140056501846FFF7E1BF0020704700BF0C66002029
S214005660034A031F1C3043F8042F8342FBD17047C4
S2140056704523CDAB2DE9F04F89B0DDE9136A0593DC
S2140056809DF848300493BDF858300693DDE917932B
S2140056901A9C0793BDF86430159F0392054688460A
S2140056A002930CB9FDF71CFDFCF7D2FD834A844B30
S2140056B0834630B16260F022C4E9022320212170C3
S2140056C0FEE735B96260F322C4E902230A2121709D
S2140056D0FEE7039931B96260F622C4E902230A2183
S2140056E02170FEE736B96260F922C4E902230A2176
S2140056F02170FEE773490968B94206D96260FC2248
S214005700C4E9022308212170FEE7574506D86260E7
S214005710FF22C4E9022308212170FEE704993F29ED
S21400572007D962604FF48172C4E902230821217010
S214005730FEE7654906980988814207D262604FF401
S2140057408372C4E9022308212170FEE72846FFF78A
S2140057501DFF5B4B594AE360029B626040F20B12EE
S214005760A2609A0784F800B040F08A80029B0599F0
S21400577003982AF0070A06EB8A0ACDE90073324638
S214005780534600F0B5FD864283460AD9322323707D
S2140057904A4B63604FF49473A360494BE360FDF794
S2140057A09FFC39463046FFF75BFF039BEB61059B8A
S2140057B02B62049B454CC5F80C8085F8333085F881
S2140057C03430C5F800B0C5F808A0C5F87090B9F137
S2140057D0000F62D13E4BD3F800A001F0A9FC22686E
S2140057E0511E0C4649464B46EAFB0041204602F055
S2140057F0A9FC079B6B60029BA5F8403005F180046E
S2140058000023C5E926330699C5F8A0306867AE615F
S2140058102046EF63FEF792FF284600F066FD284616
S21400582002F07AFAEB6B95F83320E9680093284685
S214005830AB6902F0F9FB42462946262002F040FCFE
S21400584042462146232002F03BFCFCF7F8FC0446C7
S21400585095F83300FFF738FA2846FDF78FFF2846FD
S214005860FFF750FE1B4A1388013313801A4B1B7830
S214005870012B20461BD009B0BDE8F04FFCF7E5BC75
S214005880029B9B077FF572AF00231A4602E046F89C
S21400589023200133BB42FAD168E701F049FC2268B5
S2140058A00023511E0C461946E9FB00419EE7FCF713
S2140058B0CCFC09B0BDE8F04FFEF774B80A9A0000B9
S2140058C0AB9A0000AC9500006C6000209060002051
