:1000000000100020750D0000710D0000710D000042
:10001000710D0000710D0000710D0000710D0000E8
:10002000710D0000710D0000710D0000710D0000D8
:10003000710D0000710D00008B570000710D000064
:10004000710D0000710D0000710D0000710D0000B8
:10005000710D0000710D0000710D0000710D0000A8
:10006000710D0000710D0000710D0000710D000098
:10007000710D0000710D0000710D0000710D000088
:10008000710D0000710D0000710D0000710D000078
:10009000710D0000710D0000710D0000710D000068
:1000A000710D0000710D0000710D0000710D000058
:1000B000710D0000710D000045670000710D00001A
:1000C000710D0000710D0000710D0000710D000038
:1000D000710D0000710D0000710D0000710D000028
:1000E000710D0000710D0000710D0000710D000018
:1000F000710D0000710D0000710D0000710D000008
:10010000710D0000710D0000710D000010B5054C5F
:10011000237833B9044B13B10448AFF300800123B3
:10012000237010BDA81C002000000000EC9400000B
:1001300008B5034B1BB103490348AFF3008008BD6A
:1001400000000000AC1C0020EC940000A3F5803AF5
:10015000704700BF174B002B08BF134B9D46FFF79E
:10016000F5FF00218B460F461348144A121A07F078
:1001700017FF0E4B002B00D098470D4B002B00D0E3
:1001800098470020002104000D000D48002802D0EF
:100190000C48AFF3008007F0D1FE2000290000F0EA
:1001A00033FA07F0B7FE00BF0000080000000000AF
:1001B00000000000001000203C11002038760020D4
:1001C000000000000000000008B500F0D3F900F0C6
:1001D00069F800F023FA00F0B3FBBDE8084000F036
:1001E000B5B80000074A084952F8203052F82020DC
:1001F00051F82000A3EB920398422CBF002001206D
:10020000704700BFC41C0020D41C0020F0B54FF084
:1002100080401E4C1E4F1F4E85B000F0F3FF0023A0
:1002200023702378032B06D94FF0804005B0BDE83A
:10023000F04000F0D1BF2378174DF95C4FF08040BB
:1002400000F0B0FF0021012369626A4631700A2084
:100250006B6004F001FF02236B606A6A23780F4928
:10026000DBB241F8232023780D49DBB251F823306B
:100270009A4282BF2378DBB241F8232001233370F6
:1002800023780133DBB22370CBE700BFE41C0020EE
:10029000A8800000E51C002000840140D41C002040
:1002A000C41C002030B5164D0FCD87B06C460FC46E
:1002B00095E8030084E803001248012101F058F892
:1002C0001148012101F054F81048012101F050F8C3
:1002D00001214FF48A4001F04BF80D4B0D4A1A6092
:1002E0004FF6FF72DA610C4A1A670C4B0C4A1A651A
:1002F00069464FF0804000F00DFF07B030BD00BFF1
:1003000090800000404105000012040000A204009B
:10031000008401400000010A0100002A00600E4034
:10032000000310001FB507486A46002104F042F898
:100330009DF800301BB10448302100F079FF05B072
:100340005DF804FB34220020AC80000070B596B04C
:100350003A493B480AAB002204F0CCF80EAB0393B9
:10036000384B019300240223374938480093224632
:100370000123029405F032F812AB08930123CDE972
:10038000064378220A23CDE904324FF48071192301
:10039000CDE902312E4B019315232E4A00932E49AD
:1003A0002E48234604F0BAFB9DF838209DF82830EB
:1003B00013439DF84820134303D029484C2100F0F3
:1003C00037FF00F081FB18B12548512100F030FFC4
:1003D000002005F0A3FB18B12148552100F028FFAB
:1003E000204805F063FC18B11D48592100F020FF9A
:1003F0001C4C00256FF07F432046C4E9013505F011
:1004000001FC1949204605F0EFFD01260A23CDE93C
:10041000013632462B4615490095204605F0F1FD80
:100420003223CDE90053124902962B46324620462C
:1004300005F0E7FD05F09CFB16B070BDB98000002B
:100440003422002025030000C78000000422002081
:10045000141D00203D050000D18000001421002063
:10046000AC800000E81C0020B08C0000DB800000A5
:10047000F780000070B50C4C0C4E94E80F0088B06B
:100480006D4685E80F0010342946304605F095FC8E
:1004900094E80F0004AD85E80F002946304605F0CA
:1004A0008CFC08B070BD00BF14810000E81C002067
:1004B0001FB500F13B0300934F307B230193029063
:1004C000802369460348039305F077FC05B05DF887
:1004D00004FB00BFE81C002030B587B0FFF7CAFF5F
:1004E00002AD00231A4619461148009503F078FC26
:1004F0009DF808301BB10F48D12100F099FE0E4B3A
:10050000D3E9000107F068FD07F05AFB2A460446CC
:100510000021074803F006FE9DF808301BB105488E
:10052000D72100F085FE2046FFF7C2FF07B030BD9F
:10053000582C0020AC800000402C00207FB50B49D7
:100540000B480B4C05F050FD02AE00250022104672
:100550000F231146CDE9005604F076FE204605F043
:1005600051FBFFF7B9FF05F003FBEFE7E08F000059
:10057000E81C002013B54FF00111052002F0C4F86B
:10058000042211460023052002F080F94FF00111EA
:10059000052002F0B9F8052100230422084602F0E4
:1005A00075F94FF00111052002F0AEF80023012289
:1005B0000621052002F06AF94FF00111052002F032
:1005C000A3F8002301220721052002F05FF901248E
:1005D000062223461146CDE90044052002F0B8F872
:1005E000072223461146CDE90044052002F0B0F869
:1005F000044B4FF480221A604FF480621A6002B0FC
:1006000010BD00BF00E100E008B506F0BFF8FFF73D
:10061000DBFD06F0C8F8002008BD000000B58FB073
:100620000AAB089301220023CDE906320A214FF4D8
:100630008072CDE9032119220292064A0192152205
:1006400000920549054A0648059304F067FA0FB081
:100650005DF804FB5C220020348100005D0700008F
:100660005C260020000000002DE9D043D0E902679D
:10067000044638A3D3E900233046394606F032FF5A
:10068000D4E9002307F05EF88046894631A3D3E918
:100690000023C4E90089D4E9040106F023FF3246AF
:1006A0003B4607F04FF806460F46274B0022C4E9A9
:1006B00002674046494607F043F8244B002207F002
:1006C00057FAB8B1224B1868404207F087F9024642
:1006D0000B463046394607F04BFA48B90022002352
:1006E000C4E904233046394607F072FCC4E902012C
:1006F000BDE8D083144B00224046494607F022F85B
:100700000FA3D3E9002307F051FA0028F0D0104BD3
:10071000186807F063F902460B463046394607F081
:1007200045FA0028E4D100230022C4E9042330461E
:10073000394607F04DFC01F10043A060E360D7E7C4
:100740000000000000C05E40000024400000144093
:10075000001000209A9999999999B93F80B50E4C4B
:100760000E4E8AB002AF002100910A46084601975A
:100770000F2304F069FD06AD00210B460A46204612
:10078000009503F02DFB3046FFF76EFF2A4600214F
:10079000204603F0C7FCE6E7582C0020402C002040
:1007A0002DE9F04F2DED048B9FED578B8BB05C4DF9
:1007B000002406AB0193224696232146204600944E
:1007C00004F042FDFFF722FD4FF0FF36E0B2FFF7E5
:1007D00009FD10B101361BD126460134042CF5D198
:1007E00000230DF108081A461946CDF80080284666
:1007F00003F0F6FA9DF808301BB14A48422100F098
:1008000017FD494C032E41D8DFE806F005373A3D85
:100810004FF0FF36E4E7454B0022C4E904233CA334
:10082000D3E90023D4E9040106F05CFED4E90223F5
:1008300006F088FF82468B4635A3D3E90023C4E93E
:1008400002AB06F04FFED4E9002306F07BFF384BE5
:10085000D3F80090C4E9000141EC190B484607F0B9
:10086000BDF806460F4602460B465046594607F06D
:100870009DF980B1C4E902671BE02E4B0022CCE752
:100880002D4B0022C9E784ED048BC8E79FED227B46
:1008900084ED047BC3E7C9F1000007F09FF806462A
:1008A0000F4602460B465046594607F061F90028AC
:1008B000E0D151EC190B0022002307F059F9A0B147
:1008C0009FED157B84ED007B84ED027B4246002189
:1008D000284603F027FC9DF80830002B3FF468AF52
:1008E00010487C2100F0A4FC61E7144F002651EC75
:1008F000190B32463B4607F059F90028E6D0C4E907
:1009000000679FED057BDFE7000000000000384036
:10091000000000E04D62503F0000000000000000B9
:10092000582C002042810000402C0020000038C0DC
:1009300000100020000028C00000284000005B409C
:1009400010B500238EB00122CDE9063278210A22AB
:10095000CDE904214FF480701922CDE90220124A1A
:1009600001920AAC13221149114800920894114ACD
:1009700004F0D4F810491148224603F069FB9DF8B1
:1009800028301BB10E48202100F052FC0D4B0020F6
:100990000021C3E90401C3E902010B490020C3E9B6
:1009A00000010EB010BD00BF4C2700205081000098
:1009B0004C2B0020A10700005F810000582C002074
:1009C00042810000402C0020000050407047000091
:1009D00008B50421112001F0ABF80948012100F00D
:1009E000C7FC0848022101F0A3F80748022101F0E2
:1009F0009FF80648022101F09BF8002008BD00BFC7
:100A000030253E0002001E000300200005002400E7
:100A100008B5224B01225A64214BD3F8FC20214B0C
:100A2000120E12D14AF6E851C3F89011D3F898117A
:100A300041F00401C3F89811C3F89021D3F8642160
:100A400042F40052C3F8642101E0012AF6D0164AAC
:100A5000136A23F4441343F488131362A2F58052FB
:100A6000D2F8A43143F4F843C2F8A43105F05CFB9A
:100A700000F040F805F0F6FA05F018FB05F040FB31
:100A8000FFF7A6FF05F004FB00F028F806F046FC8F
:100A900002F030F9BDE8084002F03EB900000E4017
:100AA0000081E00F00300E4000400E4002F058B9C7
:100AB00000F004B805F00ABC70477047014800F028
:100AC000DFB900BF7081000008B5042201230F21A7
:100AD000032001F0DBFE002008BD000008B504483B
:100AE000012100F045FCBDE80840FFF76FBF00BFE3
:100AF00000350A000148012100F03ABC00350A0027
:100B00002DE9F0411A4E0446884617460FCE86B0AE
:100B10006D460FC596E8030085E803001548256873
:100B2000012100F025FC6068012100F021FC617BBF
:100B3000207B0023042201F0A9FE617A207A0023A1
:100B4000042201F0A3FE28466946CDF80880ADF8DE
:100B5000107001F0DDFF237CA27B1B0643EA022319
:100B6000AB6700200A236B6706B0BDE8F08100BFC9
:100B70008881000000350A0070B506680C468D18A3
:100B8000AC4201D1002070BD14F8011B304602F0C8
:100B900019F8F5E7026813699B06FCD57047000059
:100BA00013B5044605F092FC247B00230122CDE915
:100BB00000326400034AB0FBF4F1034805F0E8FB9F
:100BC00002B010BDCD0B0000882C0020024B4FF46A
:100BD0000052C3F8A820704700A0004073B50F4B27
:100BE0000F4E4FF48045C3F89C500446407B05F0FF
:100BF000DDFD042302220DF106013046ADF806307A
:100C0000FFF7BAFF3046FFF7C5FFA07B05F0CEFD2A
:100C1000044B0020C3F89C5002B070BD00A00046F9
:100C20000810002000A0004438B5044601211248F5
:100C3000124D00F09DFBA16811480022FFF760FFF4
:100C4000002304220E21032001F020FE00230422B1
:100C50000D21032001F01AFE94E80F0085E80F0033
:100C6000084B012220461A70FFF79AFF2046FFF733
:100C7000B5FF002038BD00BF00350A00A82C0020B9
:100C800008100020A42C00202DE9F74F0688DFF87B
:100C9000A4B0984603795E43254B14464FF4804236
:100CA000C3F89C200134A4B20546407B0F4605F0F2
:100CB0007DFD230243F001031E48ADF806300222F9
:100CC0000DF106010134FFF757FF2402F610A4B21C
:100CD0004FF0000908F1FF3AC1450ED11548FFF762
:100CE00059FFA87B05F062FD134B4FF480420020B2
:100CF000C3F89C2003B0BDE8F08F39463246584611
:100D0000FFF73AFFCA4514BF44F0FF034FF6FF73E5
:100D100002220DF10601584604F58074ADF8063044
:100D20003744FFF729FF09F10109A4B2D4E700BF56
:100D300000A000460810002000A00044034B044817
:100D40001B78002B08BF0020704700BFA42C002098
:100D5000A82C00201FB5054B0FCB6C4684E80F0074
:100D60002046FFF761FF04B010BD00BFA081000066
:100D7000FEE7000008B500F069F8064B0649074A8F
:100D80008B4201D3FFF7E6F952F8040B43F8040B4A
:100D9000F6E700BF001000203C110020F494000092
:100DA00000487047005A6202104AD2F8943003F0AB
:100DB0000703023B032B13D8DFE803F00C14020EE9
:100DC0000B4B1B68D2F80001C0F304200130B3FBC9
:100DD000F0F07047074BF4E7074B1B685B08F1E73F
:100DE000054BEEE74FF40043ECE700BF00400E4038
:100DF00028100020201000202410002008B5FFF744
:100E0000D3FF054BD3F80831C3F308230133B0FBFC
:100E1000F3F0024B186008BD00400E401C1000208B
:100E2000014B1868704700BF20100020054B186068
:100E3000054BD3F8943003F00703022B01D1FFF7E1
:100E4000DDBF70472010002000400E40044B054AD3
:100E50009A60D3F8882042F47002C3F88820704763
:100E600000ED00E0000000004FF4004070474FF438
:100E70007A707047014B1868704700BF2810002037
:100E8000D0E900031847000038B50D46044618B3F2
:100E9000012824D0022825D0032826D004280ED0EB
:100EA000052825D0831F012B09D9082823D009281C
:100EB00023D00A2803D10723EB40DB0704D41048D2
:100EC0004FF4797100F0B4F930200E4B0121444306
:100ED00001FA05F51D5138BD40F2FF33ECE74FF63E
:100EE000C073E9E740F6FF73E6E74FF47F43E3E7BB
:100EF0004FF6FF73E0E70F23DEE74FF44043DBE7F5
:100F0000B08100000CA0004438B50D46044618B36B
:100F1000012824D0022825D0032826D004280ED06A
:100F2000052825D0831F012B09D9082823D009289B
:100F300023D00A2803D10723EB40DB0704D4104851
:100F400040F2134100F074F930200E4B012144436C
:100F500001FA05F51D5138BD40F2FF33ECE74FF6BD
:100F6000C073E9E740F6FF73E6E74FF47F43E3E73A
:100F70004FF6FF73E0E70F23DEE74FF44043DBE774
:100F8000B08100000CA0004610B5012104460948BC
:100F900000F0EEF90848012100F0EAF9A378207882
:100FA0006178B3FA83F35B09042201F06FFC00203F
:100FB00010BD00BF4041050000350A00034600781F
:100FC00059789B780BB9FFF75FBFFFF79DBF0346CA
:100FD000007859789B780BB9FFF796BFFFF754BF9D
:100FE00038B5047845782CB3012C26D0022C27D0B4
:100FF000032C28D0042C0ED0052C27D0A31F012BA6
:1010000009D9082C25D0092C25D00A2C03D1072377
:10101000EB40DB0704D4114840F22E4100F008F900
:101020003022544304F18044012304F52044AB40B2
:10103000A36138BD40F2FF33EAE74FF6C073E7E73C
:1010400040F6FF73E4E74FF47F43E1E74FF6FF73A9
:10105000DEE70F23DCE74FF44043D9E7B08100001F
:1010600070B504784578064654B3012C2BD0022C79
:101070002CD0032C2DD0042C0ED0052C2CD0A31F4B
:10108000012B09D9082C2AD0092C2AD00A2C03D1EB
:101090000723EB40DB0704D4134840F2FE3100F095
:1010A000C7F830235C43114B234405EBC305AD0067
:1010B000B3782868C0B213B9B0FA80F0400970BDA7
:1010C00040F2FF33E5E74FF6C073E2E740F6FF7307
:1010D000DFE74FF47F43DCE74FF6FF73D9E70F23D9
:1010E000D7E74FF44043D4E7B08100000CA01002D2
:1010F00070B505460E46144600F0ACFE296881EA3C
:10110000040202EA06044C402C60BDE8704000F086
:10111000A5BE0000B0F1804F38B504460D4606D09C
:101120001D4B984203D01D48A22100F081F82B6985
:101130003F2B03D91948B62100F07AF8EB683F2B12
:1011400003D91648B72100F073F86B683F2B03D919
:101150001248B82100F06CF86B682A781B0643EA45
:10116000C27343F400432360EA682B7A43EA0243E4
:10117000A3622A696B7A43EA0243E362AA7A084BC4
:1011800043EA0273636004F1424404F5801464018D
:101190002B7D236038BD00BF000400402782000083
:1011A00000FD0004B0F1804F13B50A46044608D094
:1011B000074B984205D001910648F52100F038F818
:1011C000019AFF21201D02B0BDE81040FFF790BF3B
:1011D0000004004027820000B0F1804F10B50446A3
:1011E00007D0064B984204D0054840F21B1100F08E
:1011F0001FF8236823F00103236010BD00040040A2
:1012000027820000B0F1804F10B5044607D0064B8E
:10121000984204D005484FF49C7100F009F8236807
:1012200043F00103236010BD00040040278200004A
:10123000FEE700000C4B984210D90C4B984210D995
:10124000022201230A490B640A49D1F8003123F034
:10125000807343EA0263C1F80031704700221346ED
:10126000F0E70122FBE700BF0048E8010090D0034F
:101270000000C84300400E4038B5114B5B68114B6D
:1012800000221C46C9B21D798D4202D11D688542DB
:1012900012D20132052A03F10803F4D10A4841F2BF
:1012A0003A41FFF7C5FF032205494B6823F040731D
:1012B00043EA02634B6038BD04EBC2025279F3E7A4
:1012C00000000E40B88300009D8200001F2810B56A
:1012D000044604D9034840F22F11FFF7A9FF01206B
:1012E000A04010BD1283000038B5074C41F67133A1
:1012F000256C2364FFF754FD0021FFF7BDFF0DB1FE
:101300000023236438BD00BF00000E40044BDB6B9C
:101310005B0604D4034AD2F8C830002BFBD17047D7
:1013200000300E400000C64308B5FFF7EFFF024B48
:101330005868C0F3014008BD00300E40044BD3F89C
:101340004421D20703D4D3F840211042FBD1704787
:1013500000400E4038B5054C41F67133256C2364CE
:10136000FFF78AFF0DB10023236438BD00000E4053
:1013700038B5C0F30323013B092B24D8DFE803F081
:101380002A2D2323051619231C20154C0023C0F3F6
:10139000043513B11846FFF7D1FF04F1424404F5B8
:1013A000801405EBC404A400216038BD0D4C01235A
:1013B000EDE70D4C1023EAE70C4C4FF48033E6E7E1
:1013C0000B4C0023E3E7BDE838400A4841F6D7114B
:1013D000FFF72EBF084C0023D9E7084C0023D6E7BF
:1013E000B0400E40E0400E40E8400E40F0400E405D
:1013F00050410E409D82000000400E40C0400E4013
:1014000008B5C0F30313013B092B60D8DFE803F0F4
:10141000050B0F195F5F1F233C532E4BD3F80001C0
:10142000C0F3042008BD2B4BD3F81401F8E7294B77
:10143000D3F80001C0F300600130FFF747FF013827
:10144000F0E7244BD3F80C01C0F30820EAE7214B66
:10145000D3F80801F8E7204B984209D01F4B984277
:101460000CD041F67B311E48FFF7E2FE0020D9E7A1
:10147000184BD3F8200100F00F00DEE7154BD3F82E
:101480002001C0F30110D8E7164B984208D003F5AD
:10149000B01303F58053984206D041F69F31E2E73E
:1014A0000C4BD3F82801ECE70A4BD3F82801C0F322
:1014B00001200430C1E70C4B984205D1054BD3F80D
:1014C000300100F00300ADE741F6AE31CBE741F665
:1014D000D331C8E700400E408006160080162E006B
:1014E0009D82000090171A00A009140008B5FFF7AC
:1014F00087FF013008BD000000F00F00013808B57B
:10150000072844D8DFE800F0040F1943232D4335A2
:10151000264BD3F8943003F00703023B052B3DD84C
:10152000234AD05C08BD214BD3F8803003F0070379
:10153000013B032B34D81F4AF3E71C4BD3F884300C
:1015400003F00703013B032B2AD81B4AE9E7174B9B
:10155000D3F8883003F00703013B032B20D8174A48
:10156000DFE7124B1B6F13F0010F0CBF07200920A0
:10157000D8E70E4BD3F85C3103F03003202B11D0A9
:10158000302B11D0102B14BF01200720CAE70C48C4
:1015900041F62771FFF74CFE0020C3E70520C1E7A5
:1015A0000120BFE70420BDE70820BBE700400E4054
:1015B0008B830000918300009583000091830000DD
:1015C0009D82000038B52C4B984205460AD02B4B23
:1015D000984207D02A4B984204D02A4841F23A5107
:1015E000FFF726FE2846FFF787FF234B9D42044660
:1015F00011D0224B9D4212D0214B9D4213D1224B40
:10160000D3F8804004F00704042C2DD8DFE804F060
:101610002A11151D19001C4BD3F88440F2E71A4B10
:10162000D3F88840EEE7174841F26951FFF700FE12
:10163000EAE7BDE83840FFF717BCBDE83840FFF7E0
:1016400019BCBDE83840FFF712BCFFF7ADFB0E4BED
:101650000446D3F80001C0F300600130FFF736FE06
:10166000B4FBF0F4204638BD064841F2BB51FFF709
:10167000DFFD0024F6E700BF030020000500240082
:1016800002001E009D82000000400E4038B500F4AC
:101690007813B3F5B01F05467FD02ED8B3F5402F91
:1016A00069D011D8B3F5802F54D006D843B1B3F523
:1016B000003F5AD041F607311AE0B3F5202FF9D197
:1016C000BDE83840FFF770BBB3F5801F00F0A28083
:1016D000B3F5A01F57D0B3F5602FEBD15B48FFF7F0
:1016E0000BFF072800F096800928E9D041F2FC2181
:1016F0005748FFF79DFD002036E0B3F5381F5AD05C
:1017000013D8B3F5001F5FD00AD8B3F5D01F5DD052
:10171000B3F5F01FCED14F48BDE83840FFF752BFB8
:10172000B3F5101FC6D14C48F6E7B3F5481F57D0A4
:10173000B3F5781F00F08280B3F5401FBAD1474857
:10174000FFF740FF464B0446D3F82801C0F30120C1
:1017500004302BE0FFF728FB414BD3F80C31C3F3E7
:1017600008230133B0FBF3F038BDFFF71DFB3C4B02
:10177000D3F80831F3E7FFF717FB394BD3F81431EF
:10178000C3F30423EDE73448FFF71CFF344BD3F8D1
:10179000303103F00303D840E6E72E48FFF712FF8D
:1017A0002F4B0446D3F8200100F00F00FFF78EFD09
:1017B000B4FBF0F0D8E72748FFF704FF284BD3F835
:1017C0002031C3F30113E6E72448A5E72348FFF7D8
:1017D000F9FE234B0446D3F82801C0F30110E5E7D6
:1017E0002048FFF789FE0138072824D801A353F8C1
:1017F00020F000BFF716000037180000371800006F
:101800001B180000371800003718000015180000DA
:1018100023180000144B1868A6E7BDE83840FFF70E
:10182000FFBAFFF7C1FA0E4BD3F80031C3F304231C
:1018300003FB000098E741F2333159E7FFF7B4FAB0
:1018400004462846FFF752FEB2E700BF06000E002E
:101850009D82000002001E000500240003002000FD
:1018600000400E40B80032002C100020014B1880C0
:10187000704700BF30100020013838B50C460328EF
:1018800064D8DFE800F002441A2FB1F5007F04D3DA
:10189000324842F22571FFF7CBFC314AC4F3080409
:1018A000D2F86838002BFBD12E4A136A23F4FF7359
:1018B00023F001032343136238BD7F2904D927484D
:1018C00042F23271FFF7B4FC254A04F07F01D2F8EE
:1018D0006038002BFBD1234B1C6924F07F040C43A0
:1018E0001C61E9E77F2904D91C4842F24D71FFF7DA
:1018F0009FFC1B4A04F07F01D2F86438002BFBD117
:10190000184B9C6924F07F040C439C61D4E7154D6F
:10191000D5F890305B0704D5104842F25D71FFF7AF
:1019200087FC6B6A23F0300343F010036B62C4F34F
:10193000C311CB1C2A6B0C490F2B01EA020128BFF3
:101940000F23214341EA03712963B5E7BDE838401D
:10195000024842F27771FFF76BBC00BF9D82000026
:101960000020C84300400E4000F8FF0F022810B5C9
:101970000C4604D0144842F28F71FFF759FC134B08
:101980005B6A13F0300F1BD0202C16D0302C17D0F0
:10199000B4B10D4842F2AA71FFF74AFC0C4B0B4A56
:1019A000D2F8901033EA0101FAD15B024ABFD2F8B3
:1019B000A0000120C0F3802010BD4FF40003EEE72B
:1019C0004FF44003EBE700BF9D82000000400E4053
:1019D000FF33E107022808B50CD129B1094B4FF4B8
:1019E0008060C3F8A80059664AB1BDE808400220EB
:1019F000FFF7BCBF044842F2E071FFF719FC012079
:101A000008BD00BF00400E409D82000004282DE963
:101A1000F04704460F4691461FD83D4B3D4A13F808
:101A200000A03D4B13F80080F1B93C4B33F8103067
:101A30001366012303FA08F8D2F8903013EA080F6E
:101A4000FAD1B9F1000F5AD00125324A05FA0AF548
:101A5000D2F890302B42FBD151E0BDE8F04730483E
:101A600042F27461FFF7E4BB2E4B022833F810609A
:101A700047D1536A13F0300F43D12B4BDB6B5A0520
:101A800004D4274842F28361FFF7D2FB214A536A0C
:101A9000DB0705D5536A23F0300343F0100353628C
:101AA000224D1C4BA8441E664FEA8808D8F8003027
:101AB000002BFBD0B9F1000F21D05544AD002B68AD
:101AC000002BFCD0022C1AD1CFB1124F796A11F041
:101AD000010118D0012220212046FFF77BFFD7F813
:101AE0009C40012200210220FFF790FFC4F30A016D
:101AF0000220FFF7C1FE3E662B68002BFCD0BDE83C
:101B0000F0870027CCE72046FFF730FFE7E700BF6C
:101B10009983000000400E409E830000AE830000C9
:101B20009D820000A483000000300E408004F2106B
:101B3000112838B50C460FD000F00F0001380728E7
:101B400000F2EB80DFE810F0240066009A00E90064
:101B50007D00B400E900C200042912D1FFF760F94A
:101B60000546A8B10021284600F082FA023C0A2C62
:101B700045D8DFE804F04A473137444444443D0F38
:101B80004D00052904D1664B1D68664B9D42E9D87E
:101B90000025EBE70320052401221146FFF736FF5D
:101BA000FFF7A2FB0DB1FFF7B1FB5F4B5C67FFF7DF
:101BB00025F90446FFF7F8F8FFF73CFBFFF7B4FB05
:101BC00001462046FFF7C6FB002D5DD128460121C6
:101BD000BDE8384000F04CBA5448FFF72BFB022018
:101BE0000446D9E75148FFF725FB01240320D3E73A
:101BF00041F6E871BDE838404D48FFF719BB41F6A2
:101C0000ED71F7E701200324C6E700200424C3E7B1
:101C10000724C5E7062933D14548464D42F22C0139
:101C2000FFF706FB424842F23C01FFF701FBFFF7DA
:101C3000BBF8FFF7FFFA404B0122C3F80826032345
:101C400021E006293D4DEDD0013C092C2BD801A304
:101C500053F824F0AD1C00008B1C0000991C000000
:101C6000A71C0000A71C00002F1C0000A71C0000E0
:101C7000A71C0000A71C0000851C0000304DE3E7F6
:101C80002C4DE1E704232B6038BD012211460020D2
:101C9000FFF7BCFE0223F6E7012211461046FFF7CC
:101CA000B5FE0123EFE742F26701A3E70023EAE76D
:101CB000072904D0092906D042F2F1019AE71A4B0C
:101CC00000221A67E0E7184B0122FAE74C1E072CA6
:101CD0001ED8DFE804F0201D1D161D1D0F04032271
:101CE0001149D1F85C3123F0300343EA0213C1F803
:101CF0005C31C9E7012211460420FFF787FE01226B
:101D0000EEE7012211460220FFF780FE0222E7E7FC
:101D100042F24F116EE70022E2E742F2262169E724
:101D200024100020002D310100400E400148E80140
:101D30009D82000080400E400010C84388400E4045
:101D400084400E4010B504461120FFF7D5FB04284F
:101D500004D1274842F20F51FFF76AFA012200210D
:101D60000220FFF753FE63781BB9A3780BB9E37821
:101D700023B11F4842F24B51FFF75AFA237C012B43
:101D800004D11B4842F25251FFF752FA194A217C02
:101D9000536A23F00103022908BF43F00103536291
:101DA000154B2178C3F8A014637AA18843EAC123B4
:101DB000D362136BA07A217A03F07F630343E08838
:101DC00043EAC02343EAC11303310F2928BF0F217F
:101DD00043EA01731363A37B617B1B0143EA013375
:101DE000E17B0B43217B43EA0143536310BD00BFFA
:101DF0009D82000000400E400000C84370B50546BB
:101E00001120FFF779FB022804D10F4842F2CD518F
:101E1000FFF70EFA0D4E0E4BB26B2C7813401C439D
:101E20006B7844EAC324AB7844EA0364EB7844EA71
:101E30000324B36BA34205D0002101220846FFF71B
:101E4000E5FDB46370BD00BF9D82000000400E4000
:101E500080E4FFF8EFF3108072B6704700B962B605
:101E60007047EFF31180602383F31188704780F38C
:101E700011887047034B5868C0F30800003818BF3A
:101E80000120704700ED00E0EFF31083DB0706D47C
:101E9000EFF311805F2894BF0020012070470120DC
:101EA00070470000034BD86B80F04000C0F38010F7
:101EB000704700BF00300E4038B542EA0323B3F547
:101EC000007F05460C463ED019D8B3F5807F36D04A
:101ED0000AD883B3012B21D01F4840F68E11FFF79B
:101EE000A7F9002213461FE040F201129342F3D1FA
:101EF0001A4BD3F824321A0EC3F3074314E0B3F598
:101F0000407F24D040F20132934210D040F20122AF
:101F10009342E1D1114BD3F8283202E00F4BD3F8B2
:101F20002432C3F30722DBB22B60226038BD0B4B97
:101F3000D3F82832DFE7094BD3F81C32F1E7074B1F
:101F4000D3F81C32D7E7054BD3F82032E9E7034B2F
:101F5000D3F82032CFE700BFE08300000081E00F1C
:101F600008B5FFF79FFF20B1024AD2F8C830002B16
:101F7000FBD108BD0000C6431A4B022810B5D3F8A8
:101F800030320C4612D0032813D0012814BFDBB224
:101F9000C3F307231B0323F47042ECB95AB140F694
:101FA0001D111148FFF744F9002010BDC3F307438A
:101FB000F0E71B0EEEE70D49CA6E22F470421343A0
:101FC000CB660120F1E70949D1F8EC2022F47042F8
:101FD0001343C1F8EC30F4E7002AF4D040F629119D
:101FE000DFE700BF0081E00FE083000000300E401B
:101FF000F8B504460F46FFF755FF78B3FFF7B0FF7B
:10200000174B5B68C3F301439C4227D0154BD3F8B1
:102010000061FEF7C9FE022C05460FD1124BC6F334
:10202000042606FB00069E4204D9104840F23161A6
:10203000FFF7FEF802212846FFF78CF9C4F10202EF
:1020400010239340064A13610FB1FFF789FF2CB9A3
:1020500021462846BDE8F840FFF77CB9F8BD00BF2F
:1020600000300E4000400E40002D3101E0830000A2
:1020700013B50246FFF716FFC8B152B90D4B0191D7
:10208000D3F80041FEF790FEC4F30422019902FB4D
:102090000002094B1B7843B1084B9A4205D8022035
:1020A00002B0BDE81040FFF7A3BF0020F8E702B080
:1020B00010BD00BF00400E40BE2C0020002D31019D
:1020C0000378134A002B437870B514BF042600260A
:1020D000002B8378946914BF02250025002B037917
:1020E00024F03F0443EA0403C47814BF082100210C
:1020F000012C08BF43F0010333432B430B4393618F
:102100001368417923F4403343EA0143136070BDFF
:1021100000300E40224B4AF6E85210B5596B5A6314
:102120009A6FD207FCD41B6C13F003031EBF1D4A29
:102130000124C2F8B44A834204D110B9194BC3F840
:10214000B40A10BD032B00D09BB9431E012B10D83D
:10215000134A4FF40023D362936FDB07FCD4136C54
:1021600023F0030343F0010313640D4A536A1C0375
:10217000FCD50B4B9A6FD207FCD41A6C22F00302E9
:1021800002431A649A6F12F00102FBD10038054C29
:1021900018BF01200129C4F8B40A08BF5A63D0E768
:1021A00000300E400000C6432DE9F04FA0F5E1637A
:1021B00089B00024B3F5966FCDE90244CDE904441B
:1021C000CDE9064406468A46934605D940F6EE21F7
:1021D0005548FFF72DF8A3E0B0F5E16F534B8CBFE6
:1021E0000122002249D1D3F81832C3F30721DBB210
:1021F000079104934FF416754FF4966748E0BBF1CE
:10220000000F0ED0D9F85C2022F4FE4222F0020228
:10221000B6F5E16F42EA012218BF02200243C9F875
:102220005C20BAF1000F26D020460021FFF7A4FE63
:10223000044610B940F64B31CAE701214046FFF78A
:102240009BFE044610B940F65331C1E7384A536E3D
:10225000BD4238BF3D4623F4FF73E72D23F0010351
:1022600028BFE725B6F5E16F18BF43F0010343EA45
:102270004503536654E0012452E0D3F81832190E96
:10228000C3F30743079104934FF496654FF4E16756
:10229000DFF89C90D9F84C400192C4F301742346B6
:1022A00005A902A8FFF708FED9F8EC30019AC3F39C
:1022B0000128434606A903A8FFF7FEFD049BF01B77
:1022C000079FF91A4143B1FBF5F299182CBF01237E
:1022D00000238F421ED3EBB9069A039FD31B4343BF
:1022E000B3FBF5F3FF182CBF01230023BA4211D32F
:1022F00083B9059B029AA3EB020C00FB0CF0B0FB28
:10230000F5F555192CBF01200020AB4202D300285F
:102310003FF475AF044840F63C31FEF789FF0024D6
:10232000204609B0BDE8F08FE08300000081E00F97
:1023300000300E40334A08B5136FD16C11F0010F15
:1023400003F0060344D0002B42D0132857D9143889
:1023500013288CBF102308232A49013BCA6C180399
:1023600022F47F4240EA03231343CB64264BCA6C1A
:102370001B88C2F303222833013202EB820003EBF5
:102380005303B3FBF0F3C86C013B072B28BF0723B3
:1023900020F0EE6040EA036343F48013CB641B4BF0
:1023A000B3F90030002B12DB03F12800C0F34E0319
:1023B0000344500800EB4202B3FBF2F20B6D072A14
:1023C00028BF072223F0700343EA02120A6508BD02
:1023D000D16C01F00101194304D109280FD90A3841
:1023E0000928B6E7D26CD20702D50BB92728B0E787
:1023F000074840F69131FEF71BFF0023ACE70423AA
:10240000AAE700BF00300E40BA2C0020BC2C0020F0
:10241000E08300000C4BD3F8803910B5044633B983
:10242000012804D9094840F6AF31FEF701FF084AF8
:10243000136F23F0070323431367064BBDE81040D7
:102440001888FFF777BF00BF0000C643E083000095
:1024500000300E40B82C002038B55A4B02229A6347
:102460009B6B03F00F039342044607D0564840F697
:102470004B21FEF7DDFE0025284638BD0389C82B19
:1024800004D9514840F65521FEF7D2FEA28823898F
:102490009A4204D94C4840F65621FEF7C9FEB4F9D9
:1024A0000C30C82B04DD484840F65721FEF7C0FE2B
:1024B0006378012B55D1A388C82B04D940F65B2142
:1024C0004148FEF7B5FEE28842F210739A4204D901
:1024D0003D4840F66821FEF7ABFEE3884A2B48D919
:1024E000B3F5FA7F47D340F6C312934294BF4FF03F
:1024F00000524FF040523349B4F90C00CB6C23F03A
:10250000405323F001030028A8BF43F00103134305
:10251000CB64D1F8EC30A28843F44073C1F8EC30BE
:102520002A4B1A80CB6E43F08073CB66284BD3F8CE
:10253000800900B10420FFF76DFF264B2189198027
:10254000254BB4F90C20A0881A80FFF7F3FEA37B7B
:10255000A3B1012B22D01C4840F6CE01FEF768FE45
:102560000FE0022BAFD1A3880A2BACD94FF4266120
:10257000A6E70022BFE74FF08052BCE7114B174A95
:102580009A65012260881146FFF70EFE054640B9A4
:102590000D4840F69F21FEF74BFE6DE7094B104AB0
:1025A000EEE7084AD36B43F48063D3636078FFF7A8
:1025B000B1FDA37AA3F1200253425341044AC2F869
:1025C000943759E700300E40E0830000B82C00201B
:1025D0000000C643BA2C0020BC2C002077402057B6
:1025E000372110B738B50D46044618B3012824D05A
:1025F000022825D0032826D004280ED0052825D06F
:10260000831F012B09D9082823D0092823D00A28A1
:1026100003D10723EB40DB0704D4104840F21341F9
:10262000FEF706FE30200E4B0121444301FA05F56A
:102630001D5138BD40F2FF33ECE74FF6C073E9E7B8
:1026400040F6FF73E6E74FF47F43E3E74FF6FF738F
:10265000E0E70F23DEE74FF44043DBE7B081000003
:102660000CA0004638B50D46044618B3012824D006
:10267000022825D0032826D004280ED0052825D0EE
:10268000831F012B09D9082823D0092823D00A2821
:1026900003D10723EB40DB0704D410484FF47971D2
:1026A000FEF7C6FD30200E4B0121444301FA05F52B
:1026B0001D5138BD40F2FF33ECE74FF6C073E9E738
:1026C00040F6FF73E6E74FF47F43E3E74FF6FF730F
:1026D000E0E70F23DEE74FF44043DBE7B081000083
:1026E0000CA0004470B505460E461446FFF7B2FB39
:1026F000296881EA040202EA06044C402C60BDE825
:102700007040FFF7ABBB0000032838B504460D4608
:1027100007D9042808D0052803D0A0F10803022B0C
:1027200002D835F0011303D008487D21FEF780FD63
:102730003020604300F180402A464FF00111BDE88F
:10274000384000F52040FFF7CDBF00BF55840000A2
:102750002DE9F0410E4615461F46044600285FD07D
:10276000012860D0022861D0032862D004280ED04E
:10277000052861D0831F012B09D908285FD00928BB
:102780005FD00A2803D10720F040C30703D437489D
:10279000BF21FEF74DFD86EA050333F0030303D0A6
:1027A0003248C121FEF744FD072D06F003064FF025
:1027B0000F0149D84FEA85082D4804FA08F201FABA
:1027C00008F1FFF78FFF03212A4806FA08F201FA01
:1027D00008F1FFF787FF1F2D03D927489121FEF746
:1027E00027FD264C2C44A4001F2D276003D9224826
:1027F0009121FEF71DFD9DF81830C4F88030204A65
:102800000123AB401F2DC2F8243403D91A4891216B
:10281000FEF70EFD9DF81C30C4F80033BDE8F081D2
:1028200040F2FF30B0E74FF6C070ADE740F6FF7002
:10283000AAE74FF47F40A7E74FF6FF70A4E70F2009
:10284000A2E74FF440409FE7A5F108084FEA880847
:102850000C4804FA08F201FA08F1FFF743FF0321DC
:10286000094806FA08F201FA08F1B2E755840000B7
:1028700000A4004008A40040CB8400008020851004
:1028800000A0004004A400400CA40040F8B50D4690
:1028900016461F460446D8B301283CD002283DD036
:1028A00003283ED004280ED005283DD0831F012BDD
:1028B00009D908283BD009283BD00A2803D107238F
:1028C000EB40DB0704D4274840F21D11FEF7B0FCB3
:1028D00026B1294620467FB3FFF784FE30206043AF
:1028E00000F18040072D00F5204028D84368AA0059
:1028F0000F21914023EA010306FA02F213434360D9
:1029000076BB294620463FB3BDE8F840FFF76ABED4
:1029100040F2FF33D4E74FF6C073D1E740F6FF73C0
:10292000CEE74FF47F43CBE74FF6FF73C8E70F23A3
:10293000C6E74FF44043C3E7FFF794FECEE7A5F1A7
:10294000080382689B000F21994022EA010206FADF
:1029500003F313438360D3E7BDE8F840FFF782BE7B
:10296000F8BD00BF55840000022838B504460D4666
:1029700003D911484C21FEF75BFC6B791F2B03D95F
:102980000D484F21FEF754FCAB786A789B0143EA6F
:1029900082032A781343EA7843EA02132A7943EA46
:1029A000C2236A7943EA0233AA79043443EA4243F0
:1029B0002401024A135138BD418500000020044023
:1029C000014B1860704700BF0000844242780179D3
:1029D0000378002A827870B514BF04260026002AE6
:1029E000C27814BF10250025002A42794FEA02322E
:1029F00042EA012242EA0302837914BF2024002420
:102A0000002BC37942EA034343EA0603027A43EA0E
:102A1000050314BF4FF4004100212343002A14BFD3
:102A20004FF4003200220B431343014A136070BD80
:102A30000020044070B506460C46154622B90D48E4
:102A40004FF42271FEF7F4FB1CB90B48FEF71EFE93
:102A500004460A4B6D00013CB4FBF5F413EA042371
:102A60004FEA042504D0034840F2A521FEF7E0FB1D
:102A7000756170BDB785000040410500070080FF0B
:102A800038B51E4B1E4D984204460ED0A8420CD0BD
:102A900003F50063984208D003F58063984204D0A0
:102AA000184840F22E41FEF7C3FB40F6AA63E360EC
:102AB00041F20502002323606260134AA360636150
:102AC000E364A26423666367A367E3670B4B9C42DE
:102AD00009D0AC4207D003F500639C4203D003F554
:102AE00080639C4201D1002323650023AC42A3658F
:102AF00002D0064A944200D1E36538BD000001408F
:102B000000040140B7850000F9FF0100000C0140FE
:102B100038B52A4B984204460D4610D003F5806321
:102B200098420CD003F58063984208D003F5806387
:102B3000984204D022484FF45671FEF779FB2046A4
:102B4000FFF79EFFA97B2A8A2368002942F0010231
:102B500014BF4FF48061002113430B432A7D23608F
:102B60002368002A14BF4FF0005200221343236051
:102B7000AB7C1BB1EB7C43F08003A3652B7B43F460
:102B800080536360D5E901122046FFF753FF6B7B4A
:102B90000BB11023E3606B7D1BB1236843F48033DA
:102BA0002360AB7DEA7D1B07120503F0E04302F4CE
:102BB000E002134323662B78E36038BD0000014038
:102BC000B785000003695B06FCD5416370470000D0
:102BD0002DE9F047374FDDE908840646154699464A
:102BE0008A4641B9082323704FF4D963A360324B5E
:102BF0006760E360FEE75AB1531E134208D0082312
:102C0000237040F2CB63A3602B4B6760E360FEE769
:102C1000FFF727F9002D08BF04254D4538BF4D4665
:102C2000D6F808E06B1E13EA0E0FC5F1000202EAA7
:102C30000E0208BF0025154409F1FF33AA4413EA28
:102C40000A0FC9F1000202EA0A0208BF4FF00009A8
:102C500002EB090372680132A2EB0E01A3EB0E0E28
:102C60007145844615491AD2B8F1000F02D09B1A5B
:102C7000C8F80030162540F22273C4E902312570ED
:102C800067606046FFF7F3F840F2D763A3600A4B32
:102C900025706760E36000252846BDE8F087B360D3
:102CA000002323704FF4E563C4E902316760FFF746
:102CB000DEF8F1E72E860000CF860000B786000020
:102CC00030B50C4685B011461D461BB9039200F085
:102CD00019F8039906480195002300930422012363
:102CE000002C18BF2046FFF773FF05B030BD00BFB2
:102CF00034100020024B00221A6002F0BFBC00BF5B
:102D0000C0500020FEE702F0D1BC0000014B18606B
:102D1000704700BFC05000201FB5104B1B78012B1F
:102D200007D1FFF7A7F8B0B94FF0FF3005B05DF855
:102D300004FB684600F06CF99DF800100029F3D1FF
:102D400001206A4600F0F2FD9DF80000003818BF2F
:102D500001204042EAE76FF00500E7E770550020E8
:102D60001FB5FFF787F848B9074B1B78012B02D036
:102D7000684600F051F84FF0FF3001E06FF00500B9
:102D800005B05DF804FB00BF7055002070470000DF
:102D90002DE9F041044608B9FFF7B4FFFFF76AF8E0
:102DA000194E1A4D074638B12023237040F21933CB
:102DB000C4E902356660FEE7154B1B78012B08D08D
:102DC00002232370666040F21D33C4E90235BDE87A
:102DD000F081DFF8408098F80030F92B05D91E23E8
:102DE0002370666040F22233EFE7FFF73AF898F875
:102DF0000030013388F80030FFF739F8277066603B
:102E000040F22D33E1E700BFE886000002880000B1
:102E1000705500207155002070B5044608B9FFF7C1
:102E200071FF264B1E78012E09D013232370244BEB
:102E3000636040F2F633A360224BE360FEE7224B6F
:102E40001B88022B09D8092323701D4B636040F2B5
:102E50000143A3601B4BE360FEE71C4D2B784BB195
:102E60001F232370164B636040F20443A360154B8D
:102E7000E360FEE7FFF708F848B11F232370104B0B
:102E8000636040F20743A3600E4BE360FEE701F08E
:102E900053FA0F4B0F4A18700F4B2E7018700C23FB
:102EA00058430E4B1B5813600D4A136001F0FEFB94
:102EB00002F022FCBDE87040FFF724BF5252002010
:102EC000E8860000D787000090560020705500204B
:102ED0006752002084560020665200207052002065
:102EE0008056002008B501F027FAA0F140035842AF
:102EF000584108BD30B14368C1F8EC308368DB68E5
:102F0000C361704791F83030022B03D0072B05D0F6
:102F1000034B00E0034BC1F8EC307047024BFAE77B
:102F20007D8700006D87000074870000044BC1F8A6
:102F3000EC3018B1826802B1D368C361704700BF3A
:102F40007D8700000023C0E90033038170470368D8
:102F500010B533B901220281C1E909330160416032
:102F60001CE0028991F833400132028193F833204A
:102F7000A2420CD85B6A002BF8D14B6243688B628B
:102F80005962ECE7C1E909325162996206E09A6A36
:102F9000002AF7D1C1E909329962016010BDC36A04
:102FA0005BB19A68526A4AB9C3E902221A8A013AA5
:102FB0001A820023C0E90933C3627047D0E90921AE
:102FC00011B991629A60F1E74A620AB9D960EDE7F6
:102FD0009162EBE738B5C56AAB685B6A4BB1FFF746
:102FE000DEFFC562014605F10800BDE83840FFF785
:102FF000AEBF38BD054B40220021013AC3E90011A4
:10300000198103F10C03F8D1704700BF7052002002
:10301000F8B5044608B9FFF775FE964D6A68D2B157
:103020002B68954E4BB92346296B94489200FFF7C5
:1030300047FE306023780BB1F8BD3360904B3268A7
:103040001A60904A6B6813608F49904A9B00136026
:103050000A6813440B602A89B2B12346296B8C4855
:103060001201FFF72DFE8B4B18602378002BE3D164
:10307000894B8A4A18602B8913808349884A1B012F
:1030800013600A6813440B606A69002A27D02B6911
:10309000844E002B62D12346296B83489200FFF7B0
:1030A0000FFE30602378002BC6D1804B2A7E1A7029
:1030B0007F4BEA691A607F4B32681A606B69EA6875
:1030C00064215A43B2FBF1F27B490A607B4A6E49A4
:1030D00013607B4A9B0013600A6813440B606A6AA2
:1030E000002A28D02B6A774E002B39D12346296B32
:1030F00075489200FFF7E4FD30602378002B9BD1E8
:10310000724B95F828201A70714B32681A606B6AFE
:10311000EA6864215A43B2FBF1F26E490A606E4AD2
:10312000E96A13606D4A9B0013606D4A116056494D
:103130000A6813440B606B4E6B6B336002F090FBBC
:1031400003F0C4F8054668B101232370664B636041
:103150004FF4D773A360654BE3606DE73360A4E77A
:103160003360CDE703F0B2F93368984209D20923FE
:1031700023705D4B63604FF4D973A3605B4BE360D6
:10318000FEE703F0A3F93368594F984240F0D88026
:103190003D603268B2F57A7F07D900230020012113
:1031A00004F036FD4FF47A754543524B524A1D6088
:1031B00000231370514A1370514A1360514A13602F
:1031C000514A1370514A1370514A2046137001F04E
:1031D00031FF0A23B0FBF3F04E4B18602578002D29
:1031E0007FF42AAF274A136853B12549086838B1DC
:1031F0000146013B41F8045BFBD1116801F084FCFE
:10320000454B00251D7001F08FF8FFF7F3FE434B8F
:103210001D60434B1D80214B1B88002B40F09C8080
:10322000404A00231360404A1380404A1360404ADA
:103230001380404A1360404A2046138001F0E0FBAF
:103240002378002B7FF4F8AE204601F0FBF92378B9
:10325000002B7FF4F1AE204602F046F92378002BD4
:103260007FF4EAAE00F018FCFFF790FD334B01222B
:103270001A70E1E648100020C85000207F87000047
:10328000CC500020D0500020C4500020D45000204A
:1032900092870000D8500020DC500020E050002031
:1032A000E4500020F0500020A4870000E8500020E7
:1032B000EC500020F4500020F8500020FC5000207A
:1032C0000051002010510020BD870000085100204F
:1032D00014510020185100201C51002020510020C2
:1032E0000C51002004510020E88600000E880000E8
:1032F00028510020245100207055002071550020D5
:10330000805600208456002066520020675200201C
:103310007855002074550020925600204C52002011
:103320005052002060520020645200206852002059
:103330006C5200207C550020805500205252002005
:1033400003F0C4F82B4602460121002004F060FC83
:103350003368584338601CE7204600F0E9FC2378C6
:10336000002B3FF45DAF67E690F833300B490C2239
:10337000534330B5CA58CC1832B901252581C0E96C
:103380000422C850606030BD2589013525810024A4
:10339000026144615061C850F5E700BF70520020DF
:1033A00090F833200B490C235A4330B58C588B18B6
:1033B00034B901251D81C0E904448850586030BDEE
:1033C0001A8901321A81002202615A684261106131
:1033D000F4E700BF7052002010B5044690F83300A7
:1033E00000F0BAFF084B94F833201B789A4220462D
:1033F00006D1FFF7D5FF2046BDE8104003F0ABBF74
:10340000FFF7B2FFF7E700BF6652002038B50C4661
:1034100091F8321007290546049807D80239052982
:1034200006D8DFE801F0060605052525FF293AD173
:1034300038BDA267A4F87C30606415B12046FFF760
:10344000AEFD21462846FFF771FD94F83230032B7C
:1034500006D104F1540002F073FF08B1FFF752FCEB
:103460002046FFF7B9FF0023238684F83230DFE7D8
:10347000A267A4F87C30606415B12046FFF78FFD89
:1034800021462846FFF752FD94F83230072B06D12B
:1034900004F1540002F054FF08B1FFF733FC00239D
:1034A00023860423E1E7BDE83840FFF72BBCD0E9D1
:1034B0000032934210B50FD01C690021A24215BF03
:1034C0006161C3E90412C3E90412C2E9043116BF01
:1034D000136102600460436010BD000070B50446D3
:1034E000D4E9043590F83300124A0C21BDB973B900
:1034F0004143551853502B816B6000F043FF00236C
:10350000C4E904332046BDE8704003F03ABF4843A5
:1035100016183189013931815D611350EFE701FBE4
:1035200000221189013911812B610BB95560E6E741
:103530005D61E4E77052002013B5044670B1084B9A
:103540001B78012B0AD10023CDE90033054A416FD6
:103550000346054802F052FF044B1C6002B010BD48
:10356000785500200D380000305100202C510020EB
:10357000F8B50446A8B1114B1B78012B11D1056F8A
:103580000F4E7DB90F4B1F6802F0A0FF32682B462B
:10359000511E0D461946E7FB0051284604F038FB42
:1035A0006067F8BD02F092FF32680023511E0E469C
:1035B0001946E5FB00613046F0E700BF7855002072
:1035C00004510020745500202DE9F7435E4B1B7811
:1035D000012B00D0FEE75D4B93F80080B8F1000F9F
:1035E00040F09680FEF73DFC594F5A4C97F80090FA
:1035F000594D064600F0A0FE40280346387000F002
:103600008A800C20DFF85C814343B9F1400F58F801
:103610000330236003D101F03BF9AFF3008022684F
:103620002B68DFF844919A4218D1002001F058FA33
:10363000012802D0286802F031F999F800303BB136
:103640002068436F0BB9FFF793FF2068FFF774FF03
:10365000304603B0BDE8F043FEF709BC99F80030EE
:103660001BB3DFF80891D9F800305B6FEBB13B4832
:1036700001A902F0E7FE30B9D9F80030019A3748C5
:103680005A6702F05DFED9F800305A6F6AB993F8B4
:10369000330000EB400008EB8000FFF708FF3B78A9
:1036A0000C22534358F8033023602268D2F8C0300C
:1036B0000133C2F8C0302A4A1368013313603B78E3
:1036C000402B33D02B682268934215D0A3B101F070
:1036D000EDFF2B68D3F8C83098421FD301F0E6FF06
:1036E0002B68D3F8C830C01A2A68D2F8CC30C2F898
:1036F000C4001844C2F8CC00246801F0D7FFC4F815
:10370000C80002F038F83046FEF7B1FBBFF36F8F08
:1037100003B0BDE8F083C4F80080CCE701F0C6FF39
:103720002B68D3F8C820D2431044DDE701F0A8F895
:103730002C681CB101F0BAFFC4F8C80003F0AAFC61
:10374000AFF30080DDE700BF705500207155002009
:1037500067520020845600208056002030510020FF
:103760008856002070520020785500202C510020EF
:103770002DE9F041044608B9FFF7C4FAFEF77AFBD9
:103780001E4F1F4E38B12023237040F24533C4E949
:1037900002366760FEE71B4B1B78012B08D0022323
:1037A0002370676040F24933C4E90236BDE8F08116
:1037B000DFF8548098F800302BB91F23237067601E
:1037C00040F24E33F0E7FEF74CFB98F80050013D15
:1037D000EDB288F800503DB1FEF749FB2D23237070
:1037E000676040F25633DFE7FEF741FBFFF7ECFE80
:1037F000257067604FF45873D6E700BFE886000075
:10380000F4870000705500207155002038B50E4B2C
:103810001B78012B0D4616D1FEF723FB00236B67A7
:103820000A4B1B6893F833300446094803EB430303
:1038300000EB8300FFF73BFE2046FEF718FBBDE8D8
:103840003840FFF7C1BE38BD785500202C5100200C
:1038500070520020F8B50C46FEF703FB94F83230A6
:10386000013B0746062B48D8DFE803F054470447DE
:103870005B47040094F83030042B08BFE36A4FF034
:10388000000608BF5D6AA667A4F87C6018BF3546CD
:1038900001F00CFF60642046FFF781FB94F83230A2
:1038A000032B31D1FFF798FD84F832604FF4407359
:1038B000238615B395F8333095F834209A421CD0FE
:1038C00094F833209A4218D1284600F01DFC95F850
:1038D0003430834228BF0346D9B295F833308B4247
:1038E0000BD0284601F04EFA284603F0FFF895F871
:1038F000332001462E2003F0A7FA3846FEF7B7FA28
:10390000BDE8F840FFF760BE072B04BF042384F82E
:103910003230CBE7002384F832302046FFF75CFDDD
:10392000EBE7042384F83230E7E700002DE9F041AB
:1039300005460E4614460AB9FFF7E4F90023237042
:103940001E4B636040F27D33A3601D4BE360FEF7C6
:1039500088FADFF880800746E6B1C8F80060194BA6
:10396000012D1A781FD0012A0FD1174C1748216852
:10397000002574311D7002F065FD08B123685D6794
:10398000124802F0DDFC002323603846BDE8F04118
:10399000FEF76DBA204601F04DFB0A23B0FBF3F0B1
:1039A000C8F80000DBE7002AEFD1094C1D70206841
:1039B000FFF7DEFD2068FFF7BFFDE6E7E8860000C1
:1039C000DF870000785500202C5100203051002066
:1039D0008056002074550020F7B504460D4611B3FB
:1039E00002F074FD114B1A680026571E46F1FF3194
:1039F000E5FB00713346384604F00AF9CDE900666C
:103A000001460B4A234604F1540002F0F7FC08B1CA
:103A1000FFF778F90323204684F8323003B0BDE87D
:103A2000F040FFF75BBD0223F5E700BF0451002023
:103A30005538000037B5144D0B4611462A6882F8F8
:103A40003030002382F83130104A127804463AB1FF
:103A50000F4A104812680191536702F071FC0199F6
:103A60002868FFF7B9FF64B1296804F10800CC6247
:103A7000FFF76DFA2968204603B0BDE83040FFF734
:103A800039BA2B68DC62F5E78056002078550020B3
:103A90002C51002030510020774B1B7882B0DBB2D4
:103AA0008DF80530754B1B68DBB28DF80730744B11
:103AB0001B78DBB28DF80530724B1B78DBB28DF8CA
:103AC0000530714B1B68DBB28DF807306F4B1B6AFA
:103AD000DBB28DF807306E4B1B78DBB28DF805300A
:103AE0006C4B1B78DBB28DF805306B4B1B88DBB25F
:103AF0008DF80630694B1B88DBB28DF80630684BB9
:103B00001B78DBB28DF80530664B1B88DBB28DF875
:103B10000630654B1B88DBB28DF80630634B1B8883
:103B2000DBB28DF80630624B93F82830DBB28DF8AB
:103B30000730604B1B78DBB28DF805305E4B1B887D
:103B4000DBB28DF806305D4B1B88DBB28DF806309A
:103B50005B4B1B88DBB28DF806305A4B1B88DBB2FF
:103B60008DF80630584B1B88DBB28DF80630574B6A
:103B70001B88DBB28DF80630554B5B8DDBB28DF8C0
:103B80000730544B1B78DBB28DF80530524B1B8845
:103B9000DBB28DF80630514B1B78DBB28DF8063066
:103BA0004F4B1B6ADBB28DF807304E4B1B78DBB2F4
:103BB0008DF805304C4B1B88DBB28DF806304B4B33
:103BC0001B88DBB28DF80630494B1B68DBB28DF8E1
:103BD0000730484B1B78DBB28DF80630464B1B781C
:103BE000DBB28DF80530454B1B78DBB28DF8053024
:103BF000434B1B78DBB28DF80530424B1B78DBB2B0
:103C00008DF80530404B1B78DBB28DF805303F4B0B
:103C10001B78DBB28DF805303D4B1B88DBB28DF88D
:103C200006303C4B1B78DBB28DF805303A4B1B88D5
:103C3000DBB28DF80630394B1B88DBB28DF80630CD
:103C4000374B1B78DBB28DF80530364B1B88DBB267
:103C50008DF80630344B9B8CDBB28DF80730334B3C
:103C60001B88DBB28DF806309DF805309DF80630D4
:103C70009DF8073002B070478810002084100020A3
:103C8000801000204C5100208C100020505100204A
:103C900090100020785100209210002094100020F5
:103CA000961000209C100020981000209A100020F0
:103CB0007C5100209E100020A0100020A2100020A7
:103CC000A4100020A6100020A8100020AA10002098
:103CD000AC510020AC100020AE100020B810002025
:103CE000DC510020B9100020BA100020B0100020D4
:103CF000B4100020BE100020BC100020BD10002019
:103D0000C2100020C3100020C5100020C4100020E5
:103D1000C6100020C8100020C0100020CA100020CB
:103D2000CC100020CE10002004520020D010002023
:103D3000154BF0B51C68154B1E880025721E04F14A
:103D4000100192B22B46AFB2BA4213D8110104EB64
:103D50000212635053601381D3600D4A1381D380E4
:103D60009680146003700B4B43605D2383600A4BA5
:103D7000C360F0BD41E9041321F8083C41F8043C5C
:103D800001351031DFE700BFDC500020E05000209B
:103D9000545200201588000099880000428910B50F
:103DA00082B1094B01681C680C6041681960D988B0
:103DB000891AD9809988114499800023C0E9003379
:103DC00043818381104610BD5452002038B504460B
:103DD0000D461022002104F0E3F8258138BD0000D3
:103DE0002DE9F74F0C9C06468A4617461D460CB92E
:103DF000FEF788FFFEF73EF848B120232370864B7C
:103E0000636040F23313A360844BE360FEE74EB976
:103E10000A232370804B63604FF49B73A3607F4B36
:103E2000E360FEE7C7F30E034BB1082323707A4B20
:103E3000636040F23913A360784BE360FEE73268B9
:103E4000774B9A4209D00C232370734B636040F286
:103E50003D13A360714BE360FEE73FB2002F0CDB24
:103E6000FEF712F848B11F2323706B4B63604FF4C9
:103E7000A073A360694BE360FEE76A4B93F8009080
:103E8000B9F1010F1CD1FDF7ECFF96F82830DFF8EF
:103E90009CB18046F3B9DBF80030736286F8289055
:103EA0000DB1F26A2A609A6B326240469E63FDF75A
:103EB000DEFF00232370584B63604FF4AA7305E0C4
:103EC00002232370544B636040F24513A360534BAD
:103ED000E36014E0D6F82490DBF80020914521D16E
:103EE000FF2BDFF834914D4F0CD1FDF7C0FF1E239F
:103EF0002370C4F8049040F25D13C4E9023703B0A4
:103F0000BDE8F08F013386F828300DB1F36A2B60DD
:103F10004046FDF7ACFF23232370C4F8049040F221
:103F20006913EAE7002F0BDAFDF7A1FF0DB10023BB
:103F30002B601D232370384B63604FF4BB73C5E7C0
:103F4000394B1B785BB1FDF792FF0DB100232B605D
:103F50002D232370304B63604FF4C173B6E792F8A2
:103F6000331099F833308B420BD9484600F00AFFE2
:103F7000484602F0BBFD99F8332001462D2002F09F
:103F800063FF524604213046FFF754FD4046FDF7DB
:103F90006EFFFFF719FBFDF764FFDBF8003093F8C5
:103FA0003120032A32D8DFE802F00213271D0DB1B9
:103FB0005B6C2B6000232370174B63604FF4D0734E
:103FC000A360164BE36003B0BDE8F04FFDF74FBFB1
:103FD0000DB15B6C2B60212323700F4B63604FF49A
:103FE000D573EDE70DB100232B60222323700A4B1C
:103FF00063604FF4DA73E3E70DB15B6C2B60312340
:104000002370054B63604FF4DF73D9E70190FEF72F
:1040100079FE0198D7E700BFA88800003A89000020
:104020004D55545870550020715500208056002081
:10403000054B064AC36100234361136883610BB9D2
:10404000106070475861FBE77D87000060520020D8
:104050002DE9F04705460F4614460AB9FEF752FE11
:10406000FDF708FFDFF88090DFF88080064638B162
:10407000202323705223C4E90238C4F80490FEE7D9
:104080003DB90A2323705523C4E90238C4F80490CB
:10409000FEE7FDF7E6FE302231468246284603F071
:1040A0007FFF0F4B05F10800C5E90037FEF74AFF17
:1040B0002846FFF7BDFF0B4A1388013313802946BA
:1040C0003A46292003F0CCF95046FDF7D0FE6C2388
:1040D0002670C4E90238C4F80490BDE8F08700BF38
:1040E0004D55545864520020A888000046890000AD
:1040F000836B00F138028B42186A01D1106070475F
:1041000003F120020346F6E7836B3F2003B97047B3
:104110009A6822B192F83320904228BF10461B6A59
:10412000F4E700002DE9F04F054685B08B461446B4
:104130000AB9FEF7E7FDFDF79DFEDFF89481604FB9
:1041400040B12023237040F25723C4E90237C4F85A
:104150000480FEE745B90A23237040F25A23C4E9DC
:104160000237C4F80480FEE7CBF30E0343B1082303
:10417000237040F25D23C4E90237C4F80480FEE7EF
:104180002A68504B9A4208D00C23237040F26123D6
:10419000C4E90237C4F80480FEE74B4B1B78012BBF
:1041A0000AD002232370C4F8048040F26523C4E9D6
:1041B000023705B0BDE8F08FDFF818A1FDF751FE1A
:1041C0006A6ADAF800309A42814608D0FDF74FFE5D
:1041D0001B232370C4F804804FF41B73E7E701F03E
:1041E00065FA95F828300290013BDBB2E86285F869
:1041F00028304BB14846FDF73AFE23232370C4F81C
:10420000048040F27D23D2E7DAF800002946FFF768
:104210006FFFAE685EB96E6285F828604846FDF7AC
:1042200026FE2670C4F8048040F28A23BFE7DAF83D
:10423000001091F8333091F834600393B34220D0EA
:104240000846FFF761FFB04228BF3046039BC6B265
:10425000B34216D20846FFF741F9DAF8000080F8B9
:10426000336002F043FC324601462E2002F0ECFDA2
:10427000304600F071F8DAF80000FFF791F8134BC0
:104280001E70A9686962012385F828308B6B2B6248
:10429000029B8D63009300231A462846FFF7B6F869
:1042A0004846FDF7E4FD1BF4004F01D1FFF78CF900
:1042B00000232370C4F8048040F2AD2377E700BFE9
:1042C0002E8900004D55545870550020665200202C
:1042D000A8880000805600202DE9F341846B054634
:1042E000012714B902B0BDE8F081D4F8208001F0B4
:1042F000DDF92146E06206462846FFF7F9FEA1688F
:1043000021B984F8281061624446EAE784F82870ED
:104310008B6B2362002365621A468C6320460096ED
:10432000FFF774F8F0E70000024B0022C3E9002217
:10433000704700BF3452002008B5064B186828B9F2
:10434000586801F0CDF92030C0B208BD01F0C8F9BD
:10435000FAE700BF345200201F28094A07D84FF05F
:10436000004323FA00F013680343136070470123EE
:10437000C0F13F0003FA00F05368184350607047E3
:10438000345200201F280A4B08D84FF0004222FA6E
:1043900000F01A6822EA00021A6070470122C0F198
:1043A0003F0002FA00F05A6822EA00025A607047A1
:1043B000345200202DE9F3470646884614460AB9D0
:1043C000FEF7A0FC4EB90A2323703E4B636040F217
:1043D0002623A3603C4BE360FEE747F6FF5518EA4F
:1043E000050509D008232370364B636040F229236A
:1043F000A360354BE360FEE73268344B9A4209D044
:104400000C2323702F4B636040F22F23A3602E4BAD
:10441000E360FEE72E4B1B78012B09D002232370AB
:10442000284B636040F23323A360274BE36038E0FE
:1044300001F03CF98146FDF714FDB7680546F7B178
:1044400008F4007A002339461A467F6ACDF80090B6
:104450003046FEF7DBFFBAF1000F01D0002FF1D19B
:104460002846FDF704FD18F4004F01D1FFF7ACF822
:10447000144B63600025257040F26523D4E7356A4C
:10448000DFF840A0DFF840806B1C0ED1FDF7EFFC99
:104490001E2323704FF41173C4E90238C4F804A03A
:1044A0003D46284602B0BDE8F0870135C6E9085907
:1044B000FDF7DDFC40F24F23C4E902382770C4F851
:1044C00004A0EEE754890000D889000053454D410F
:1044D00070550020054B064AC361002343611368F1
:1044E00083610BB9106070475861FBE77D8700005E
:1044F0007C5500202DE9F84F05460F4693461C4693
:104500000BB9FEF7FFFBFDF7B5FCDFF88490DFF891
:104510008480064638B1202323705823C4E902382A
:10452000C4F80490FEE73DB90A2323705B23C4E975
:104530000238C4F80490FEE7FDF793FC28223146C8
:104540008246284603F02CFD0F4B2B6005F1080036
:10455000C5F820B06F60FEF7F5FC2846FFF7BAFFFC
:104560000A4A13880133138029463A462F2002F065
:1045700077FF5046FDF77BFC73232670C4E90238B1
:10458000C4F80490BDE8F88F53454D418055002094
:1045900054890000E2890000F8B5064608B9FEF724
:1045A000B1FBFDF75EFC1F4B00251D801E4B1D60FF
:1045B0001E4B1D601E4B1D81FDF759FCFDF751FC84
:1045C0001C4B1C68FDF753FC74B9FDF74AFC1A4BF1
:1045D0001D68FDF74CFC05BB184B7360A423B3604A
:1045E0003570174BF360F8BDFDF73BFCC4E933555C
:1045F000C4F89450C4F8D850C4F8C050A4F8BA50C5
:10460000A4F8BC50074601F051F8A4F88C50C4F847
:10461000C800D4F8E8403846D4E7FDF722FCAC8562
:10462000AD69D6E7865500207C560020C45700208F
:10463000545200208C56002068520020EE89000061
:10464000868A000000B5104A104900231370104AF2
:104650008BB013700322CDE90632CDE904330D4A45
:104660000890126803920C4A0C48126802920C4A95
:10467000126801920B4A127800920B4A00F04EFA2F
:104680000BB05DF804FB00BF88550020738A000062
:1046900082550020FC500020F85000208C5500204E
:1046A000F4500020E8500020BD46000008B500F09E
:1046B000FDFF014B186008BD485200202DE9F04F66
:1046C00085B06846FFF768FF684600F0B3FC9DF8C8
:1046D000003005460BB1FEF715FB5C4B18684FF038
:1046E0000008A842C24642F2107728BF0A20B5FB54
:1046F000F0F500F0DBFF564E814600F0D7FF33683F
:10470000984267D300F0D2FF3468041BFDF7A9FB81
:10471000504BD3F800B0C3F800A0FDF7A8FB4E4BF8
:104720009C425DD94D4B9C425ED94D4B9C425FD320
:104730004C4B9C4295BF4FF47A7038460A260126AE
:104740000BFB06F3B4FBF0F4B3FBF4F39BB2BB42F8
:10475000454A28BF3B461380444AFB1A9BB213804C
:10476000434A1188994203D2B8F1000F00D0138058
:10477000DFF808B1FDF775FBDBF80080FDF777FB8C
:10478000B8F1000F37D1FDF76CFBDBF80080FDF7C7
:104790006EFBB8F1000F3BD1364B1A78012A04D1D9
:1047A000684683F80080FFF7F7FE01F083F8FFF713
:1047B0007DFF00F07BFF304B1A68A0EB09008242BE
:1047C00038BF18606A460021284600F045FC4FF0CB
:1047D00001088EE700F06AFF3368DB431C1895E799
:1047E000012042F21076ABE70A204FF47A76A7E771
:1047F00064200646A4E7FDF734FBD8F8CC30C8E9BE
:1048000033A3FDF734FBFDF72CFBD8F8E880B5E7C0
:10481000D8F8D030B8F8BC207343B3FBF4F39BB2A4
:10482000BB4228BF3B469A4238BFA8F8BC30A8F824
:10483000BA3008F1DC0208F1E00140466B4600F0B6
:1048400041F8FDF70EFBD8F8E880A0E7EC50002017
:1048500048520020445200207F1A0600FF083D0005
:10486000005A6202FF83D7173C5200208455002073
:1048700086550020825500207C5600208C56002052
:1048800008B500F013FF014B186008BD405200202E
:1048900010B50A4C00F00AFF2368984208D300F0D4
:1048A00005FF2368C01A064A13681844106010BD3B
:1048B00000F0FCFE2368DB431844F4E7405200207C
:1048C000445200202DE9F04105460F4616461C468D
:1048D0000BB9FEF717FAFDF7CDFA48B12023237084
:1048E0002F4B636040F2BC63A3602E4BE360FEE796
:1048F0004FB90A2323702A4B636040F2BF63A36061
:10490000284BE360FEE74EB90A232370244B636013
:1049100040F2C163A360234BE360FEE7FDF7A1FA19
:104920000DB9214B1D68D5F80080B8F1000F10D1EA
:10493000FDF79DFA0823C7F80080C6F800802370B1
:10494000174B636040F2CC63A360164BE360BDE895
:10495000F081B5F8408018F001080CD1FDF787FA16
:104960000723C7F80080C6F8008023700C4B6360F3
:1049700040F2D463E8E7FDF77AFAAA6900231C3213
:1049800052F8041F51B13B60EA6BD31A3360002325
:104990002370034B636040F2EF63D5E70133EFE729
:1049A000928A0000408B000080560020064A0023B7
:1049B000C0F8E4301368C0F8E8300BB910607047F5
:1049C000C3F8E400FAE700BF8C560020D0E9392391
:1049D00042B90A490B600BB1C3F8E4200023C0F8C8
:1049E000E8307047C2F8E83013B9C0F8E4307047D7
:1049F000C3F8E4200023C0F8E830F6E78C56002026
:104A0000074A00231360074A1380074A13600370A4
:104A1000064B436040F621038360054BC36070473B
:104A20008C5600209056002088560020928A000064
:104A30001D8B000038B5F0220446002103F0B0FAC7
:104A40001D4BE3600025002104F18000FFF7BEF953
:104A5000C4E92455C4E92C55C4E92655C4E93555A3
:104A6000C4E93755C4E91C55C4E93055C4F8A4500D
:104A7000A4F8AC50C4F8A850C4F8A050A564E563ED
:104A800084F8B850A4F84050256584F84C50A4F838
:104A9000BA50A4F8BC5000F009FE4FF080432363E5
:104AA000402384F83430054BA563C4E93205C4E9DA
:104AB0003955C4F8EC3038BD178B00007D870000F5
:104AC000064A031F1C3053F8041F914203D183424E
:104AD000F9D1012070470020704700BF4523CDABBE
:104AE00008B9084B1868026883699A4207D3C16BFA
:104AF00003EB8100824202D21846FFF7E1BF00209B
:104B0000704700BF80560020034A031F1C3043F843
:104B1000042F8342FBD170474523CDAB2DE9F04FE5
:104B200089B0DDE9136A05939DF848300493BDF818
:104B300058300693DDE917931A9C0793BDF864304B
:104B4000159F03920546884602930CB9FEF7DAF8E2
:104B5000FDF790F9834A844B834630B16260F022BE
:104B6000C4E9022320212170FEE735B96260F322F7
:104B7000C4E902230A212170FEE7039931B962607A
:104B8000F622C4E902230A212170FEE736B96260E9
:104B9000F922C4E902230A212170FEE7734909685A
:104BA000B94206D96260FC22C4E9022308212170BF
:104BB000FEE7574506D86260FF22C4E902230821B8
:104BC0002170FEE704993F2907D962604FF4817292
:104BD000C4E9022308212170FEE765490698098887
:104BE000814207D262604FF48372C4E90223082134
:104BF0002170FEE72846FFF71DFF5B4B594AE36033
:104C0000029B626040F20B12A2609A0784F800B027
:104C100040F08A80029B059903982AF0070A06EB68
:104C20008A0ACDE900733246534600F047FE8642B9
:104C300083460AD9322323704A4B63604FF494733E
:104C4000A360494BE360FEF75DF839463046FFF755
:104C50005BFF039BEB61059B2B62049B454CC5F8F6
:104C60000C8085F8333085F83430C5F800B0C5F8CD
:104C700008A0C5F87090B9F1000F62D13E4BD3F88F
:104C800000A001F023FC2268511E0C4649464B4609
:104C9000EAFB0041204602F0BBFF079B6B60029BD2
:104CA000A5F8403005F180040023C5E926330699B4
:104CB000C5F8A0306867AE612046EF63FFF786F85D
:104CC000284600F0F8FD284602F0F6F9EB6B95F85F
:104CD0003320E96800932846AB6902F075FB424631
:104CE0002946262002F0BCFB42462146232002F042
:104CF000B7FBFDF7B6F8044695F83300FFF72CFB39
:104D00002846FEF74DFB2846FFF750FE1B4A138846
:104D1000013313801A4B1B78012B20461BD009B09E
:104D2000BDE8F04FFDF7A3B8029B9B077FF572AF7C
:104D300000231A4602E046F823200133BB42FAD191
:104D400068E701F0C3FB22680023511E0C46194698
:104D5000E9FB00419EE7FDF78AF809B0BDE8F04F96
:104D6000FEF732BC928A0000338B0000E48600001C
:104D7000E05000200451002074550020905600207F
:104D80007055002070B504460D4694F83230072B5C
:104D900008D8013B062B0BD8DFE803F01F22221FA7
:104DA0001F222200FF2B1AD0BDE87040FDF7AABFDA
:104DB0002046FEF793FB284684F83350FFF7CCFAE1
:104DC0002D4B1B68A342204603D1BDE87040FEF77F
:104DD000CBBABDE87040FEF7E3BA84F8335070BD3B
:104DE00094F8303094F8336084F83350013B072B4B
:104DF000DAD801A252F823F0194E0000DF4D00006E
:104E0000A94D0000234E0000194E0000194E00006D
:104E1000DF4D0000194E00002046BDE87040FEF74F
:104E2000D9B82046FEF7D6F8E36A5C6AB54294F832
:104E300033300AD2AB42D2D9204601F057FE2A467F
:104E400001462D2002F000F89FE7B3429DD1204695
:104E5000FFF75AF994F8342094F83330904228BF81
:104E60001046C5B2AB42BAD0204601F03FFE2A46FA
:104E700001462E20E6E700BF805600202DE9F041D4
:104E800004460D4609B9FDF73DFFFCF7F3FF48B1B5
:104E900020232B705B4B6B604FF4DB73AB605A4B82
:104EA000EB60FEE7594B1B78012B0AD002232B70D5
:104EB000544B6B604FF4DD73AB60534BEB60BDE85C
:104EC000F0812CB9FCF7CDFF514B1C68FCF7CFFFEC
:104ED000FCF7C7FF94F83230072B804608D8013B17
:104EE000062B0DD8DFE803F04935350F493535007D
:104EF000FF2B7DD0FCF7BBFFBDE8F041FDF702BF03
:104F00002046FEF7EBFAA36B13B12046FFF7E4F956
:104F100004F18000FEF742FF204600F0CDFC204661
:104F2000FFF754FD3B4A1388013B1380FF2384F8AD
:104F300032304046FCF79BFF00232B70314B6B60F7
:104F400040F23323AB60304BEB60BDE8F041FEF73D
:104F50003BBB94F83030082B47D8DFE803F0080556
:104F600008461705050805002046FEF718F894F8CE
:104F7000323003F0FB03032BC5D104F1540001F0E0
:104F8000DFF90028BFD0FDF7BDFEBCE7E36A5E6A2B
:104F9000204696F83370FEF702F896F8333096F80C
:104FA00034209A420CD094F833209A4208D13046EB
:104FB000FFF7AAF896F83410814228BF0146CFB215
:104FC000002384F8303096F83330BB42CFD03946D6
:104FD0003046FFF7D7FE304601F088FD96F83320C3
:104FE00001462E2001F030FFC1E7FDF78BFEBEE742
:104FF000FCF73DFF1F232B70024B6B6040F209232F
:105000005AE700BF928A0000298B000070550020EB
:1050100080560020905600201FB5054B186800F000
:105020004CFC69460020FFF729FF05B05DF804FB42
:105030008056002000230370044B436041238360AB
:10504000034BC360034B1868704700BF4D8B0000D3
:10505000EA8B0000045100202DE9F04F054685B091
:10506000884614460AB9FDF74DFEFCF703FF6C4F66
:105070006C4E30B1202323707023C4E90236676080
:10508000FEE7FCF701FF30B11F2323707323C4E94F
:1050900002366760FEE7644B93F80090B9F1010FA8
:1050A00008D00223237067607723C4E9023605B075
:1050B000BDE8F08F5D4B93F800A0BAF1000F04D06B
:1050C0002D23237067607C23EFE7B8F1000F2FD00A
:1050D000B8F1020F2CD0B8F1080F00F09680082329
:1050E00023708123C4E902366760FEE701F0E2F92C
:1050F0004F4B1968A0FB0181029101F0E7F953467B
:1051000002460299404602F083FD4A4B1B6893F821
:105110004C20CAB11A6D15441D652D1A25EAE57596
:10512000454A116821B11A6D91429CBF521A1A6505
:10513000002D49D0404B1B685BB1AB4209D81E2300
:1051400023706760A923B0E72844186583F84C9062
:10515000E6E701F0BBF9364B02901A680392FCF7C0
:1051600080FE039A0299DFF8CCA04FF00009804638
:10517000CC46501EE5FB010C4B46614602F048FD53
:10518000DAF800B02D4A0146CDE900995B460BF1F3
:10519000540001F033F9012530B14046FCF767FEB9
:1051A00025706760B92380E7DAF8000080F8325094
:1051B000FEF794F94046FCF75AFEFEF705FA002385
:1051C00023706760D22370E7FCF74BFE1C4B1D4930
:1051D0001A784FF00C0C02EB42030CFB02F201EBCD
:1051E000020C01EB83038958DCF804209142054648
:1051F00006D1FCF73CFE002323706760C82354E708
:105200001846FEF754F92846D5E7002D7FF46EAF17
:105210008623C4E9023684F800806760FEE700BF99
:105220004D8B0000E08B0000705500207155002070
:1052300004510020805600202851002055380000DD
:1052400066520020705200202DE9F843099CBDF8F9
:1052500020708146884615461E460CB9FDF752FD62
:1052600027F01A034BB108232370444B63604FF4BB
:105270008A73A360424BE360FEE7FB0632D4B6F5C7
:105280007A7F09D3082323703C4B636040F21713E5
:10529000A3603B4BE360FEE73B2D09D90823237055
:1052A000364B63604FF48C73A360354BE360FEE7CD
:1052B000B8F13B0F09D908232370304B636040F2EB
:1052C0001913A3602E4BE360FEE7B9F1630F24D9F5
:1052D00008232370294B63604FF48D73A360284B20
:1052E000E360FEE742F20F73984509D90823237063
:1052F000224B63604FF48E73A360214BE360FEE7A3
:10530000B9F57A7F09D3082323701C4B636040F200
:105310001D13A3601A4BE360FEE71A4B4FF4616064
:105320001A6800FB09503C2505FB080582B14FF4C3
:105330007A7303FB05639A420AD81E2323700F4B2E
:1053400063604FF49473A3600D4BE360BDE8F88392
:105350000D4B18684FF4FA72B2FBF0F29319434305
:105360004FF47A7207F00A01B3FBF2F3224600FB16
:105370000530BDE8F843FFF76FBE00BF4D8B00005E
:10538000D28B0000245100200451002000B589B0C8
:1053900004AB00220093044803AB1146FEF720FD46
:1053A00009B05DF804FB00BFA05600201FB50448FB
:1053B0006A460021FEF7B6FE05B05DF804FB00BFAB
:1053C000A0560020044A002383621368C3620BB90D
:1053D000106070479862FBE7945600202DE9F74F64
:1053E0000F9CBDF830900191054690469A460CB945
:1053F000FDF788FCFCF73EFD364F374E30B1772382
:10540000C4E90236202222706760FEE735B97A23AC
:10541000C4E902360A2222706760FEE7B9F1010F83
:1054200015D0B9F1020F1CD1BAF1000F06D17F23BC
:10543000C4E90236082222706760FEE70D9BBBB903
:105440008223C4E902360A2222706760FEE7B8F1BF
:10545000000F0DD18623C4E902360822227067604E
:10546000FEE78A23C4E90236082222706760FEE75D
:10547000DFF870B09BF80020012A01D1FFF786FF0A
:1054800030220021284602F08BFD0122019B85F885
:105490002620124A12492A606B600E9A0D9BEA6020
:1054A000C5E9078AA5F82490AB602846FFF78AFF74
:1054B0000A8801320A809BF80020012A01D1FFF7F7
:1054C00075FF0022AD23C4E902362270676003B085
:1054D000BDE8F08FFE8B0000A38C0000544D5220DD
:1054E000D05600207055002010B51F4A00231360CD
:1054F0001E4A044613601E4A8AB01380FFF79AFDC5
:105500002378002B2CD11B4B1B68002B2AD0B0FB1F
:10551000F3F3194A19491360194A1A4813601A4AD1
:1055200000231360194A13602246FEF791FD237889
:10553000B3B90B22CDE90632CDE90433144A0894FD
:1055400012680392134A144912680292134A1448CB
:1055500012680192134A12780092134AFFF7DEFA9A
:105560000AB010BD0A23D2E7945600209C560020B2
:10557000985600200C510020CC570020828C00004F
:10558000D0570020A0560020C8570020C457002044
:105590001C510020185100208F8C00001451002055
:1055A000D456002008510020E95500000C4A036938
:1055B0001168814204D1136033B100225A6103E0C3
:1055C00042691361002BF9D1064A012380F8263085
:1055D0000023C0E904331388013B1380704700BFE8
:1055E0009C560020985600202DE9FF471F4F204E63
:1055F000DFF8848038686A460021FFF72DFDFFF749
:10560000C5FE00F053F83368D8F800400133054672
:1056100033604FF0030954B900F048F8154B1A688D
:10562000401B824238BF1860FFF7C0FEE2E76846C1
:10563000FDF7AEFBA369D4F810A0013BA3614BB901
:10564000A38C022B0BD1236AA361A36813B1E16879
:10565000204698476846FEF78BF85446DBE720461D
:10566000FFF7A4FF84F82690EFE700BFCC57002097
:10567000C8570020C45700209C56002008B5FBF7EF
:10568000BDFB4FF0E022D2F8FC3D43F08073C2F83E
:10569000FC3D054B00225A601A6842F001021A6074
:1056A000BDE80840FDF732BB001000E0014B586830
:1056B000704700BF001000E038B500250446FBF736
:1056C0009DFB064A0023294602F0A2FA02460B4639
:1056D0002046294602F09CFA38BD00BF40420F0028
:1056E000B0FA80F0704790FAA0F0B0FA80F07047FE
:1056F00090FAA0F0704700BF72B64EF62250CEF27C
:10570000000040F2FF01C0F200010170002080F3B0
:10571000098845F2D470C2F20000016881F308885C
:1057200000F006F945F26620C2F2000045F267215A
:10573000C2F200010A78027045F28060C2F20000F5
:1057400045F28461C2F200010A680260106880F3C9
:105750000988EFF3148040F0020020F0040080F389
:105760001488BFF36F8FBDE8F04F0FBCBDE8005049
:1057700006BC62B6084737484FF080510160704759
:1057800034484FF0805101607047602080F31188E9
:1057900045F28062C2F200021168002901BF2E4A60
:1057A000136823F0010313600ED0EFF309801EF09D
:1057B000100F08BF20ED108A20E9F04F45F28065F8
:1057C000C2F2000529680860744600F0B1F845F29D
:1057D0008061C2F2000145F28460C2F200000368F9
:1057E0000B6045F26622C2F2000245F26721C2F266
:1057F00000010878107044F0040E002B0AD01868DD
:10580000B0E8F04F1EF0100F08BFB0EC108A80F324
:1058100009881BE045F2D471C2F200010868A0F1CA
:105820001C0080F3088840F20001C0F20011C16141
:1058300045F65D01C0F20001816145F21901C0F237
:10584000000141614FF6F97ECFF6FF7E002080F324
:105850001188704704ED00E034EF00E000BFFDE781
:105860000B4B1A680B4B02F180421B68013A03EBA9
:105870008203094A23F0070313604FF0E023D3F8B3
:10588000343F03F04043B3F1404F00D0FEE7704790
:10589000D0500020CC500020D457002007B5FCF792
:1058A000E0FA0190FDF72EFA019803B05DF804EBE1
:1058B000FCF7DDBA704770477047704710B5029C1F
:1058C00002EB840222F007024FF0807442E90204E6
:1058D000164842F80C0C4FF012344FF0033042E9F6
:1058E00005044FF0023042E907306FF0020C4FF030
:1058F000113342E90A3C42F8201C4FF009334FF0C3
:10590000103142E90C314FF008304FF0073342E9D3
:105910000E304FF006344FF00533104642E9103494
:105920004FF0043340F8443D10BD00BF1950000053
:1059300010B50F4C206848B10E4B1B7833B1436F44
:105940000BB9FDF715FE2068FDF7F6FD20680A4C3F
:1059500001F00CFD23684BB10020FFF7C1F80128CE
:1059600004D02068BDE81040FFF798BF10BD00BF0D
:105970008456002078550020805600204111064AA8
:10598000012300F01F0003FA00F052F82130184301
:1059900042F82100704700BFE4570020044B1B6809
:1059A0001BB1044B0360002070470120704700BF0B
:1059B000F45F0020D857002070B50D4C246884B1E6
:1059C0000C4C26888518B5420DDC6688CD18B5428A
:1059D00009DC52B14BB1A080E180228163810020BB
:1059E00070BD0120FCE70420FAE70520F8E700BFBE
:1059F000F45F0020D85700202DE9F74F0093444B67
:105A00001B68002B7FD0DFF810910D9FB9F806308E
:105A1000B9F80A205D181A441FFA82FAADB24FF0A5
:105A2000010B1FB9384603B0BDE8F08FABB29A4501
:105A30006BD9384AB9F80840B9F80430241A02EB97
:105A40000511009ABC4228BF3C46161E18BF01260D
:105A500003447642072CA7EB04079BB2F6B221D889
:105A60001C44BEB9A34217D2DE0803F007020BFAAA
:105A700002F08A5D013322EA00028A559BB2F1E707
:105A8000D80803F007020E5C0BFA02F2324301332E
:105A90000A549BB2A342F3D32846FFF76FFF0135A8
:105AA0000020BEE74FEAD30C01EBD30813F0070345
:105AB00010D00BFA03F211F80CE0D2B2501E524291
:105AC0000EEA000032401043083B01F80C0008F1D8
:105AD00001081C44E20809D031464046019202F018
